:020000040000FA
:06000000FDEF18F01200F4
:06080000FDEF18F01200EC
:06100000FDEF18F01200E4
:06102A0001003C32000051
:08103000E600000003000000CF
:08103800D9CFE6FFE1CFD9FF9B
:10104000E6526A6A686A9F0E6B6EFB0E696E6D8C63
:101050006D9C6E6A000EE66EE66AE66A710EE66EDA
:101060000F0EE66E45EC18F0146E050EE15E14509E
:10107000DF6ADF50146E156A080E145C000E1558F6
:1010800010E2DF50040DF3CFE9FFF4CFEAFF000ECA
:10109000E926040EEA22EE6AEE6AEE6AEE6ADF2ABA
:1010A000E8D7160E706E68A60CD0030EE66E680EBA
:1010B000E66E0F0EE66ED6EC0FF0E552E552E55205
:1010C000F2D70001BF6BC46BC56BC66B6D98080E81
:1010D000B66F040EB76FAC6BAB6BE552E552E7CF62
:1010E000D9FF1200D9CFE6FFE1CFD9FFE6520001C8
:1010F000AB510BE16D6A696A6DB602D06D86FCD7A3
:101100000001010EAB6F160E6F6EAB0508E16DBAF4
:1011100006D0686A696A69806988020EAB6F685098
:10112000040B04E06950040B01E09ED86DB265D059
:101130006850010B11E06950010B0EE07DDF0001EA
:10114000040EAB6F0401200E026F040E036F080E35
:10115000016F006B8C0E00136850100B0FE069508C
:10116000100B0CE072D8040EE66E680EE66E0F0EE1
:10117000E66ED6EC0FF0E552E552E5526850400BB2
:1011800010E06950400B0DE077EC18F0060EE66EAB
:10119000680EE66E0F0EE66ED6EC0FF0E552E552E5
:1011A000E5526850200B04E06950200B01E02AD87A
:1011B0006850020B06E06950020B03E078EC18F06F
:1011C0006A6A040E0001AB5D18E369A616D0DF6AF7
:1011D000040EDF5C12E268A610D06CCFCDF0030ED7
:1011E000E66E680EE66E0F0EE66ED6EC0FF0E55278
:1011F000E552E5524CD8DF2AEBD7E552E552E7CF6E
:10120000D9FF120070A015D0AEC0E9FFAFC0EAFF51
:10121000EF5080080DE1B6C0E9FFB7C0EAFFEF501C
:10122000840806E1AEC0E9FFAFC0EAFF8C0EEF6EA6
:101230007090050EE66E680EE66E0F0EE66ED6EC4A
:101240000FF0E552E552E55212006984040EE66E95
:10125000680EE66E0F0EE66ED6EC0FF0E552E55224
:10126000E5526D8275EF18F06D9276EC18F0699486
:1012700068A40CD0020EE66E680EE66E0F0EE66EE7
:10128000D6EC0FF0E552E552E552F2D71200FD0E12
:101290000001CD1520E17E0ECD15E8407F0B040D39
:1012A000F3CFAEF0F4CFAFF0000EAE27040EAF23B5
:1012B000AEC0B0F0AFC0B1F0B075AEC0E9FFAFC026
:1012C000EAFFEF503C0BE842E8420D0802E171EF03
:1012D00009F088EF09F0FD0ECD15040801E120D8D2
:1012E0001200B6C0E9FFB7C0EAFFEF50800B05E07F
:1012F000B6C0E9FFB7C0EAFFEF6A0001BA6BBB6B8B
:10130000C06BC16BBF6BF6D879EC18F03FEF0CF0F7
:10131000020E0001BB5D02E19AEF0DF0DAEF09F079
:10132000D9CFE6FFE1CFD9FFE652B6C0E9FFB7C09B
:10133000EAFFEF50400B01E0010EDF6E0001B675D1
:10134000080EAB5D09E122C46EFF6E50000802E298
:10135000100E01D0040EAB6FBB0526E1B6C0E9FF4D
:10136000B7C0EAFF020EE926000EEA22280EEE6E52
:10137000040EED6E53DB020E0001BA5D06E1B6C04D
:10138000E9FFB7C0EAFF840E0DD0DF5006E1B6C01A
:10139000E9FFB7C0EAFFC80E05D0B6C0E9FFB7C085
:1013A000EAFF880EEF6E01D005D8E552E552E7CF8F
:1013B000D9FF1200D9CFE6FFE1CFD9FF030EE12616
:1013C000020E0001BB5D49E16D50100B46E0AEC05E
:1013D000E9FFAFC0EAFFEE52EF50146E156A080E37
:1013E00014183BE1155039E1AEC0E9FFAFC0EAFF88
:1013F000EF503C0BE842E8420D082FE1B0C0E9FF96
:10140000B1C0EAFFEF50800B28E1B0C0E9FFB1C0E6
:10141000EAFF020EE926000EEA22200EEE6E040E0E
:10142000ED6EDF6ADF50146E156A080E145C000E54
:10143000155844E2DF50EA6A280FE96E040EEA22EA
:10144000EF50E66EDF50EA6A200FE96E040EEA22E2
:10145000E552E750EF6EDF2AE5D7BB6BB0C0E9FF7E
:10146000B1C0EAFFEE52080EEF6EB0C0E9FFB1C0A6
:10147000EAFF020EE926000EEA22200EEE6E040EAE
:10148000ED6EB0C0E9FFB1C0EAFF8C0EEF6EB6C0E2
:10149000E9FFB7C0EAFFEF6A040EB619146EB7C0D1
:1014A00015F0010E14C0DBFF020EB7C0DBFF010E0A
:1014B000DBCFE9FF020EDBCFEAFFEF6A0001C4AF2A
:1014C0000FD0C751C811C91109E007D0C9C0FBFF2F
:1014D000C8C0FAFF0001C751F96EF8DF0001C49FD0
:1014E000030EE15C02E2E16AE552E16EE552E7CF0C
:1014F000D9FF120004012051600BE842E842E842A3
:10150000E842E842000901E0120021510C0A43E0E0
:101510000B0A3FE00C0A31E0010A22E00B0A1EE050
:10152000020A1CE0030A18E0080A10E0010A0CE0B5
:101530000F0A08E0030A01E012000001BF8F080E45
:10154000AB6F120052EF0BF02DEF0EF00001AC0E5E
:10155000BC6F000EBD6F0CD0E5EF0BF0CCEF0AF0C6
:1015600024510001BC6FBD6BAD0EBC27000EBD2326
:10157000BF81010EC06FBF8F12000001BF8F040139
:101580002451EA6AAD0FE96E000EEA2222C4EFFF91
:1015900012007BEF18F01200D9CFE6FFE1CFD9FFA0
:1015A000040EE1260401220510E120511F0B000961
:1015B0000CE10001BF8F030E0401215D04E1000175
:1015C000010ECC6F02D00001CC6B0401225160E10E
:1015D00020511F0B02085CE124510F0B000958E059
:1015E0000001BF8F040124BF0BD024510F0BE96E03
:1015F000EA6AD890E936EA36B20EE926000E0AD039
:1016000024510F0BE96EEA6AD890E936EA36B60E35
:10161000E926000EEA22EECFDEFFEDCFDDFF030E5E
:10162000215D06E1DECFE9FFDDCFEAFF840E2FD09A
:1016300024510F0B156A700F146E0F0E1522020E37
:1016400014C0DBFF030E15C0DBFF020EDBCFE9FF8A
:10165000030EDBCFEAFFEE90ED5224AF0CD0DECFCD
:10166000E9FFDDCFEAFFEF6ADF74DECFE9FFDDCF10
:10167000EAFF400E0CD0DECFE9FFDDCFEAFF880E97
:10168000EF6EDF74DECFE9FFDDCFEAFFC80EEF6E4D
:10169000040EE15C02E2E16AE552E16EE552E7CF59
:1016A000D9FF1200800E0401205D01E08DD0000101
:1016B000C00EBF6F04012351030A4CE0010A0CE085
:1016C000030A01E07FD00001BA0EBC6F2D0EBD6F82
:1016D000000EBE6F120E73D05E0E146E2E0E156EBF
:1016E000000E166E22C417F0186A196A030E0C6EEB
:1016F0000D6A0E6A17C007F018C008F019C009F08B
:10170000D9EC17F014500424F36E15500520F46E34
:1017100016500620F86EF4CFF7FFF3CFF6FF09005E
:10172000F5CFBCF00900F5CFBDF00800F5CFBEF055
:10173000BCC0F6FFBDC0F7FFBEC0F8FF020EF62624
:10174000000EF722F8220900F5CFC0F00A00F5CF0D
:10175000C1F01200610E146E2E0E156E000E166E84
:1017600022C417F0186A196A030E0C6E0D6A0E6A0D
:1017700017C007F018C008F019C009F0D9EC17F02D
:1017800014500424F36E15500520F46E16500620F4
:10179000F86EF4CFF7FFF3CFF6FF0900F5CFBCF0FA
:1017A0000900F5CFBDF00800F5CFBEF0BCC0F6FFD4
:1017B000BDC0F7FFBEC0F8FF0800F5500001C06FC4
:1017C000C16B12000001BF6B1200D9CFE6FFE1CF61
:1017D000D9FF020EE1260401286B296B20511F0B53
:1017E000020A11E0030A0CE0010A35E10001BF8F93
:1017F000040128810001CC052EE1040128832BD0AF
:101800000001BF8F28D00001BF8F040124BF0BD07F
:1018100024510F0BE96EEA6AD890E936EA36B20E27
:10182000E926000E0AD024510F0BE96EEA6AD8901F
:10183000E936EA36B60EE926000EEA22EECFDEFFE2
:10184000EDCFDDFFDECFE9FFDDCFEAFFEF50040B88
:1018500002E0010E286F0001BFAF07D0280EBC6F59
:10186000040EBD6FBF81020EC06F020EE15C02E28A
:10187000E16AE552E16EE552E7CFD9FF12006D98BB
:101880000001BFBF47D0C4AF26D0020EBB6FB6C0A9
:10189000E9FFB7C0EAFFEE52EF6AB6C0E9FFB7C092
:1018A000EAFFC80EEF6EB0C0E9FFB1C0EAFFEE522A
:1018B000080EEF6EB0C0E9FFB1C0EAFF020EE926E4
:1018C000000EEA22280EEE6E040EED6EB0C0E9FFA7
:1018D000B1C0EAFF77D0B0C0E9FFB1C0EAFFEE5275
:1018E000080EEF6EB0C0E9FFB1C0EAFF020EE926B4
:1018F000000EEA22200EEE6E040EED6EB0C0E9FF7F
:10190000B1C0EAFF8C0EEF6EB6C0E9FFB7C0EAFFC8
:10191000840E59D0C4BF81D0040120AF56D000013D
:10192000C0510401265D0001C1510401275904E2A0
:1019300026C4C0F027C4C1F071D80001010EBB6FEE
:10194000B0C0E9FFB1C0EAFFEE52080EEF6EB0C0C2
:10195000E9FFB1C0EAFF020EE926000EEA22200EDE
:10196000EE6E040EED6EB0C0E9FFB1C0EAFF800E6E
:10197000EF6EAEC0E9FFAFC0EAFFEE52080EEF6EA9
:10198000AEC0E9FFAFC0EAFF020EE926000EEA2270
:10199000200EEE6E040EED6EAEC0E9FFAFC0EAFFA2
:1019A000800EEF6EB6C0E9FFB7C0EAFF020EE9266F
:1019B000000EEA22280EEE6E040EED6EB6C0E9FFB0
:1019C000B7C0EAFFC80EEF6E12000001020EBB6F37
:1019D000B6C0E9FFB7C0EAFFEE52EF6AB6C0E9FF52
:1019E000B7C0EAFFC80EEF6EB0C0E9FFB1C0EAFFB2
:1019F000EE52080EEF6EB0C0E9FFB1C0EAFF020E72
:101A0000E926000EEA22280EEE6E040EED6EB0C03E
:101A1000E9FFB1C0EAFFC80EEF6E1200D9CFE6FFB2
:101A2000E1CFD9FF020EE1260001080EC05D000ED5
:101A3000C1590DE2C0C0DEFFC1C0DDFFBA5102E1F5
:101A4000010E03D0BA0506E1020EBA6F03D0080EEC
:101A5000DE6EDD6AB6C0E9FFB7C0EAFFEF92B6C03E
:101A6000E9FFB7C0EAFFEF90B6C0E9FFB7C0EAFFF1
:101A7000010EDB50EF12B6C0E9FFB7C0EAFFEE522D
:101A8000DFCFEFFF000EDB50C05F010EDB50C15B0C
:101A9000280ECA6F040ECB6FBFB123D0D9CFE9FF98
:101AA000DACFEAFFEE50ED103BE0BCC0F6FFBC2BF6
:101AB000BDC0F7FF000EBD23BEC0F8FFBE23080067
:101AC000F550E66ECAC0E9FFCBC0EAFFCA2B000E94
:101AD000CB23E552E750EF6EDF06010EDFE2DB06B7
:101AE000DDD7D9CFE9FFDACFEAFFEE50ED1018E0ED
:101AF000BCC0E9FFBDC0EAFFBC2B000EBD23EF5008
:101B0000E66ECAC0E9FFCBC0EAFFCA2B000ECB23AA
:101B1000E552E750EF6EDF06010EE3E2DB06E1D7A8
:101B2000020EE15C02E2E16AE552E16EE552E7CFC6
:101B3000D9FF1200D9CFE6FFE1CFD9FF020EE1268F
:101B4000AEC0E9FFAFC0EAFFEE52EFCFDFFFDFCF5D
:101B500014F014500001C55D000EC65903E2C5C063
:101B6000DFFF09D0DF50146E156AE850C55DC56F00
:101B70001550C659C66F010EDB6ADF50F36E010EB9
:101B8000DBCFF4FFF350F45C16E2010EDB50EA6A9F
:101B9000280FE96E040EEA22EF50E66EC2C0E9FF9C
:101BA000C3C0EAFFC22B000EC323E552E750EF6E1D
:101BB000010EDB2AE2D7000ED880C555000EC655AF
:101BC00027E2B0C0E9FFB1C0EAFFEE52080EEF6EA7
:101BD000B0C0E9FFB1C0EAFF020EE926000EEA221A
:101BE000280EEE6E040EED6EAEC0E9FFAFC0EAFF48
:101BF000EF50400B06E1B0C0E9FFB1C0EAFFC80EEC
:101C000005D0B0C0E9FFB1C0EAFF880EEF6E1BD06F
:101C1000B0C0E9FFB1C0EAFF020EE926000EEA22D9
:101C2000200EEE6E040EED6EC751C811C91109E009
:101C300007D0C9C0FBFFC8C0FAFF0001C751F96E49
:101C4000F8DF0001C49F020EE15C02E2E16AE552A6
:101C5000E16EE552E7CFD9FF12000001BF8F000E01
:101C6000E66EE66AE66A710EE66E0F0EE66E45EC0B
:101C700018F0146E050EE15E1450010EE66EE66A71
:101C8000E66AAD0EE66E000EE66E45EC18F0146ED8
:101C9000050EE15E145022C4ACF00401225104E1AF
:101CA0000001100EAB6F12000001200EAB6F7CEF35
:101CB00018F0D9CFE6FFE1CFD9FF020EE126000EE2
:101CC000DE6E040EDD6EFD0EDB50E824166EFE0E99
:101CD000DB50040DF3501624040DF350146E156AF6
:101CE000020E0F0B05E0D89015321432E806FBE126
:101CF000D89014361536D89014361536D9CFE9FF5A
:101D0000DACFEAFF1450EE261550ED22DECFE9FFC0
:101D1000DDCFEAFFEF9EFD0EDB500AE1FE0EEA6A20
:101D2000DB34FE0BEA36E96EB20EE926000E09D06E
:101D3000FE0EEA6ADB34FE0BEA36E96EB60EE926E1
:101D4000000EEA22DECFEEFFDDCFEDFFDECFE9FFB2
:101D5000DDCFEAFFEF9CDECFE9FFDDCFEAFF040E27
:101D6000E926000EEA22EF8C020EE15C02E2E16A53
:101D7000E552E16EE552E7CFD9FF1200D9CFE6FF79
:101D8000E1CFD9FF020EE126FE0EDB50156A700F7F
:101D9000146E0F0E152214C0DEFF15C0DDFFFD0E00
:101DA000DB50E66EDECFE9FFDDCFEAFFE552E7501C
:101DB000EE6EED6AFD0EDBA407D0E66AFE0EDBCF09
:101DC000E6FF77DFE552E552FD0EDBA208D0010EFB
:101DD000E66EFE0EDBCFE6FF6CDFE552E552020E4B
:101DE000E15C02E2E16AE552E16EE552E7CFD9FF3C
:101DF0001200D9CFE6FFE1CFD9FF020EE126FE0E99
:101E0000DB5020E1B0C0E9FFB1C0EAFFEE52080E9E
:101E1000EF6EB0C0E9FFB1C0EAFF020EE926000E86
:101E2000EA22200EEE6E040EED6EB0C0E9FFB1C0E6
:101E3000EAFF8C0EEF6EB6C0E9FFB7C0EAFF840E72
:101E4000EF6E3BD0FD0EDB50E824166EFE0EDB502D
:101E5000040DF3501624040DF3CF14F0F4CF15F055
:101E6000000E1426040E152214C0DEFF15C0DDFF7F
:101E7000840EDECFE9FFDDCFEAFFE850EF12FD0E62
:101E8000DB50E824166EFE0EDB50040DF3501624D2
:101E9000010F040DF3CF14F0F4CF15F0000E14264B
:101EA000040E152214C0DEFF15C0DDFF840EDECF48
:101EB000E9FFDDCFEAFFE850EF12020EE15C02E23B
:101EC000E16AE552E16EE552E7CFD9FF1200D9CFC2
:101ED000E6FFE1CFD9FF020EE126FD0EDB500AE05E
:101EE000FE0EEA6ADB34FE0BEA36E96EB60EE92630
:101EF000000E09D0FE0EEA6ADB34FE0BEA36E96E0C
:101F0000B20EE926000EEA22EECFDEFFEDCFDDFFB6
:101F1000DECFE9FFDDCFEAFF020EE926000EEA225E
:101F2000FB0EDBCFEEFFFC0EDBCFEDFFDECFE9FFDC
:101F3000DDCFEAFFEE52FA0EDBCFEFFF400EDECF31
:101F4000E9FFDDCFEAFFE850EF16880EDECFE9FFAC
:101F5000DDCFEAFFE850EF12FD0EDB500AE0FE0E87
:101F6000EA6ADB34FE0BEA36E96EB60EE926000EAD
:101F700009D0FE0EEA6ADB34FE0BEA36E96EB20ED9
:101F8000E926000EEA22EF74DECF14F0DDCF15F063
:101F900014C0F3FF15C0F4FF020EE15C02E2E16A37
:101FA000E552E16EE552E7CFD9FF1200D9CFE6FF47
:101FB000E1CFD9FF010EF36EFC0EDB5004E0D890A8
:101FC000F336E806FCE1F31C146EFD0EDBCFE9FFEF
:101FD000FE0EDBCFEAFF1450EF16E552E7CFD9FF34
:021FE0001200ED
:0E1FE2000001976B986B400EE66E300EE66EB7
:101FF000040EE66EE66A010EE66E67EC0FF0146EF4
:10200000050EE15E1450F3CF95F0F4CF96F0000189
:10201000606BA36BA46BA56BA66BA76BA86BA96B7E
:10202000AA6B9B6B9C6B6E6B010E6E5D1FE29CEC52
:1020300016F0000916E08BEC16F0000912E0010E14
:102040006EC0E7FFE75204E0E846FE0BE706FCE15E
:10205000146E156A14BE1568145000019B131550B8
:102060009C130AEC15F000016E2BDED71200040160
:1020700020511F0B010801E01200245101E0120061
:102080002151FE0A03E0010A0DE012000401286B51
:102090000001280EBC6F040EBD6F010EC06FC16B36
:1020A000C10EBF6F1200D9CFE6FFE1CFD9FFE652D4
:1020B00000016051030A01E1ADD0010A01E199D0AC
:1020C000030A01E192D0010A01E0EBD0955196118B
:1020D00002E1000E08D095C0E9FF96C0EAFFEF507C
:1020E000800B01E0010E000901E0DBD030C461F09B
:1020F00031C462F032C463F033C464F034C465F0B8
:1021000035C466F036C467F037C468F038C469F087
:1021100039C46AF03AC46BF03BC46CF03CC46DF057
:102120003DC46EF03EC46FF0DF6A04013E51DF5CD7
:1021300013E2DF50EA6A3F0FE96E040EEA22EF5025
:10214000E66EDF50EA6A700FE96E000EEA22E55291
:10215000E750EF6EDF2AE9D795C0E9FF96C0EAFFA6
:10216000EE52EFCF80F01F0E0001805D01E099D0AC
:10217000550E611901E095D0530E621901E091D01E
:10218000420E631901E08DD0430E641901E089D03D
:102190006E510F0801E285D06F51100801E281D025
:1021A000010E6F5D01E27DD06D5104E0800E6D5D2A
:1021B00001E077D065C053F466C054F467C055F4AD
:1021C00068C056F40401550E4F6F530E506F420E07
:1021D000516F530E526F800E00016D5D02E1010ED2
:1021E00017D06D515EE1020E13D01BDAFF0859E1E2
:1021F0000DD017DAFF0855E104015B5107E1575193
:10220000581159115A1102E0020E5B6F0001030EC2
:10221000606F47D09751981102E1000E08D097C027
:10222000E9FF98C0EAFFEF50800B01E0010E0009C2
:1022300038E10D0EE66E4F0EE66E040EE66E010EF0
:10224000E66EE66E67EC0FF0146E050EE15E14505C
:10225000F3CF97F0F4CF98F000019551961102E179
:10226000000E08D095C0E9FF96C0EAFFEF50800B42
:1022700001E0010E000913E11F0EE66E300EE66E5E
:10228000040EE66EE66A010EE66E67EC0FF0146E61
:10229000050EE15E1450F3CF95F0F4CF96F00001F7
:1022A000606B00016051E552E552E7CFD9FF1200A3
:1022B000D9CFE6FFE1CFD9FF090EE1260001E651B3
:1022C000FE0A01E1F7D0030A01E1C9D0D20A01E117
:1022D000BDD0340A01E1BAD01B0A01E1ACD01E0A1C
:1022E00001E199D0040A01E18BD0190A65E0290ABD
:1022F0005EE0020A57E00D0A1EE0370A06E0ED0A2A
:1023000001E0D8D070C0E6F0E8D0240EE66EE66AB0
:10231000D60EE66E310EE66E000EE66E000EE66E2E
:10232000050EE66E22EC18F0146E070EE15E1450F6
:102330000401240E5FD004015B6B47EC16F0050E20
:1023400006C0DBFF060E07C0DBFF070E08C0DBFF81
:10235000080E09C0DBFF68EC16F0010EF3CFDBFFBF
:10236000020EF4CFDBFF030EDB6A040EDB6A080EFD
:10237000DBCF00F5070EDBCF01F5060EDBCF02F554
:10238000050EDBCF03F5040EDBCF04F5030EDBCF28
:1023900005F5020EDBCF06F5010EDBCF07F50401D4
:1023A000080E37D094D9000901E097D055D058DAFB
:1023B000000901E092D050D0DF6ADF50146E156A38
:1023C000120E145C000E155813E2DF50EA6A810FFA
:1023D000E96E000EEA22EF50E66EDF50EA6A000F67
:1023E000E96E050EEA22E552E750EF6EDF2AE5D7E7
:1023F0000401120E576F586B596B5A6B5B6B6AD0A6
:102400000501020E006F016B026B036B04015B6B35
:10241000040E576F5CD09CEC16F0000917E1000128
:1024200083918383839583973A0E8D6F8E6B04011E
:10243000010E5B6F11D0000183510F0B060803E101
:1024400004015B0509E0E6DA040102D004015B6BDC
:10245000576B586B596B5A6B0001E6693ED000010F
:102460009751981102E1000E08D097C0E9FF98C07B
:10247000EAFFEF50800B01E0010E00092EE157C486
:10248000E6FF000EE66E050EE66E010EE66EE66EE7
:1024900067EC0FF0146E050EE15E1450F3CF97F069
:1024A000F4CF98F00001E6690401576B586B596B43
:1024B0005A6B13D0AFDA00018381839383858397AE
:1024C000200E8D6F8E6B0401010E5B6F576B586B86
:1024D000596B5A6B0001FD0EE66F090EE15C02E2DA
:1024E000E16AE552E16EE552E7CFD9FF1200D9CF9C
:1024F000E6FFE1CFD9FFE6520001E651FD0A55E0C3
:10250000020A50E0ED0A30E00C0A01E180D01E0A18
:1025100001E17DD0030A74E17DDA000183918383B8
:10252000839583973A0E8D6F8E6BDF6ADF50146E42
:10253000156A120E145C000E155813E2DF50EA6A99
:10254000810FE96E000EEA22EF50E66EDF50EA6A74
:10255000000FE96E050EEA22E552E750EF6EDF2A22
:10256000E5D70401120E15D0240EE66EE66AD60EEB
:10257000E66E310EE66E000EE66E000EE66E050E9D
:10258000E66E22EC18F0146E070EE15E14500401A2
:10259000240E576F586B596B5A6B5B6B0001FD0E25
:1025A000E66F3AD070C0E6F037D00001975198112D
:1025B00002E1000E08D097C0E9FF98C0EAFFEF5093
:1025C000800B01E0010E000927E157C4E6FF000E71
:1025D000E66E050EE66E010EE66EE66E67EC0FF037
:1025E000146E050EE15E1450F3CF97F0F4CF98F01F
:1025F0000001E6690401576B586B596B5A6B0CD09C
:10260000010EE66EE66EF9EC0EF0E552E5520401BD
:10261000010E5B6F0001E669E552E552E7CFD9FF95
:1026200012009CEC16F0000914E1010E6EC0E7FFE9
:10263000E75204E0E846FE0BE706FCE1E81C146EF6
:10264000156A14BE1568145000019B1715509C178D
:1026500038D0010E6EC0E7FFE75204E0E846FE0BFB
:10266000E706FCE1166E176A16BE176800019B515B
:102670001614146E9C511714156E1450151023E186
:102680008BEC16F000091DE0010E6EC0E7FFE7526B
:1026900004E0E846FE0BE706FCE1146E156A14BE82
:1026A0001568145000019B1315509C13839183836C
:1026B00083858397280E8D6F8E6B0401010E5B6FEF
:1026C00002D015DF01D0F4DD0001E6511200000157
:1026D000E751040A01E17CD0070A6DE0010A27E016
:1026E000030A18E0010A01E0B8D072C0A2F073C07A
:1026F000A1F074C0A0F075C09FF077C09EF078C0C4
:102700009DF004015B6B576B586B596B5A6B000162
:10271000010EE76F00019D519E1103E10001E76B7F
:102720009CD09D07000E9E5B0001020EE76F00012A
:102730009751981102E1000E08D097C0E9FF98C0A8
:10274000EAFFEF50800B01E0010E000901E085D0A7
:10275000000EE66E050EE66E9FC0E6FFA0C0E6FF27
:10276000A1C0E6FFA2C0E6FF9EEC16F0146E060EB6
:10277000E15E145001080AE00401010E5B6F576B23
:10278000586B596B5A6B0001606F67D000019F2B2B
:10279000000EA023A123A22304015B6B576B020E42
:1027A000586F596B5A6B0001000E936F050E946FB2
:1027B0000001030EE76F04015751581159115A11C6
:1027C00004E10001010EE76F48D00001040EE76F3D
:1027D00004015B5142E1400E575D000E5859000E56
:1027E0005959000E5A5939E300019751981102E1E5
:1027F000000E08D097C0E9FF98C0EAFFEF50800BA9
:1028000001E0010E000929E1400EE66E93C0E6FFEB
:1028100094C0E6FF010EE66EE66E67EC0FF0146EF4
:10282000050EE15E1450F3CF97F0F4CF98F000015D
:10283000030EE76F400E0001695F000E6A5B6B5B81
:102840006C5B400E0401575F000E585B595B5A5B8E
:10285000400E00019327000E94230001E75112005F
:102860000001E851020A01E1B2D0060A73E0070A4A
:102870002BE0020A14E0010A01E0C9D072C0A2F004
:1028800073C0A1F074C0A0F075C09FF077C09EF037
:1028900078C09DF004015B6B0001010E606F0001C8
:1028A0009D519E1103E10001E86BB1D00001030EC0
:1028B000E86F0001000E936F050E946F0401576BD3
:1028C000020E586F596B5A6BD880000E0401575591
:1028D000000E5855000E5955000E5A5528E20001B9
:1028E0009551961102E1000E08D095C0E9FF96C0FF
:1028F000EAFFEF50800B01E0010E000901E087D0F4
:10290000400EE66E93C0E6FF94C0E6FFE66A010E55
:10291000E66E67EC0FF0146E050EE15E1450F3CF17
:1029200095F0F4CF96F00001040EE86F13D0DAECC6
:1029300016F000090CE0000183918383839583974F
:10294000270E8D6F8E6B0401010E5B6F60D000014E
:10295000020E5CD000019551961102E1000E08D0E4
:1029600095C0E9FF96C0EAFFEF50800B01E0010E31
:1029700000094DE195C0E9FF96C0EAFFEE52EFCFA6
:1029800014F0156A166A176A1450695F15506A5B6D
:1029900016506B5B17506C5B95C0E9FF96C0EAFF61
:1029A000EE52EFCF14F0156A166A176A145004013C
:1029B000575F1550585B1650595B17505A5B400EC5
:1029C00000019327000E94230001030E1FD0E66A36
:1029D000000EE66E050EE66E9FC0E6FFA0C0E6FFA5
:1029E000A1C0E6FFA2C0E6FFBCEC16F0146E070E15
:1029F000E15E145001080BE100019F2B000EA023A3
:102A0000A123A2239D079E5B0001010EE86F000138
:102A1000E85112000001819181938195819781890C
:102A2000818B818D819F826B839183938395839723
:102A3000839B839D839F846B856B866B876B0A0E5C
:102A4000886F896B8A6B8B6B8C6B8D6B8E6B8F6BCE
:082A5000906B916B926B120078
:082A58000001DA510AE0DA6B1B
:102A6000E66A080EE66EE66A94EC18F0E552E55266
:102A7000E5521200D9CFE6FFE1CFD9FFE652C950A7
:102A8000DF6E9E96FE0EDB50C96E9EA6FED7E55207
:102A9000E552E7CFD9FF1200829CD70EE66EEADF3F
:102AA000E552E668E7DFE552C9CFDBF0828C010E24
:102AB000E66E0BEC19F0E5521200D9CFE6FFE1CF3C
:102AC000D9FF829CFE0EDBCFE6FFD4DFE552D8C0F3
:102AD00014F0D9C015F00001166A176A1450E66E9A
:102AE000C9DFE552D7C014F0D8C015F0D9C016F030
:102AF0000001176A1450E66EBDDFE5520001D651A1
:102B0000E66EB8DFE552828C010EE66E0BEC19F032
:102B1000E552E552E7CFD9FF1200BEDF0001DBAF7F
:102B2000FCD712000A0E1F0BD2C0D6F0D3C0D7F0CC
:102B3000D4C0D8F0D5C0D9F008E00001D890D6377D
:102B4000D737D837D937E806F9E1530EE66EB5DF47
:102B5000E5528DEF15F0E66A8DDFE552D2C014F034
:102B6000010E1416156A166A176A145015101610FD
:102B7000171003E0020EE66E01D0E66A7BDFE55235
:102B8000E66A78DFE5521200D9CFE6FFE1CFD9FF40
:102B9000020EE126C7DF829CD40EE66E6BDFE552A3
:102BA000DADFE66A67DFE552DE6ADD6ADECF14F05F
:102BB000DDCF15F0000E145C020E155813E2E66A24
:102BC00059DFE552FD0EDBCFE9FFDB2AFE0EDBCF3E
:102BD000EAFF01E3DB2AC9CFEFFFDF2A010EE6E3BC
:102BE000DB2AE4D7828C010EE66E0BEC19F0E5527D
:102BF000020EE15C02E2E16AE552E16EE552E7CFE6
:102C0000D9FF1200D9CFE6FFE1CFD9FF020EE126AE
:102C100023DF88DF810EE66E50DFE5527EDF829C87
:102C2000840EE66E27DFE55296DFDE6ADD6ADECFD0
:102C300014F0DDCF15F0000E145C020E155812E2F0
:102C4000FD0EDBCFE9FFDB2AFE0EDBCFEAFF01E35F
:102C5000DB2AEF50E66E0EDFE552DF2A010EE7E3D6
:102C6000DB2AE5D7828C010EE66E0BEC19F0E552FB
:102C7000880EE66E22DFE55250DF020EE15C02E2D2
:102C8000E16AE552E16EE552E7CFD9FF1200D9CFF4
:102C9000E6FFE1CFD9FF040EE126DE6A400EDE6ECC
:102CA000DE6ADD6ADD52DD52DECF06F0DECF07F0F0
:102CB000DECF08F0DDCF09F0DD52DD52040EE15C1D
:102CC00002E2E16AE552E16EE552E7CFD9FF120078
:102CD000D9CFE6FFE1CFD9FF020EE126DE6ADD6E35
:102CE000DECF14F0DDCF15F014C0F3FF15C0F4FFF4
:102CF000E15C02E2E16AE552E16EE552E7CFD9FF1D
:102D00001200949C9392949E9380828C400EC76E86
:102D1000200EC66E1200080EE66EE66AB9EC18F0D8
:102D2000E552E5520001DA6FB7DEBF0E0001DB1598
:102D3000BC0801E1010C000C8BEF16F0D9CFE6FFC7
:102D4000E1CFD9FFFB0EDBCFD2F0FC0EDBCFD3F00F
:102D5000FD0EDBCFD4F0FE0EDBCFD5F0F90EDBCFCE
:102D6000E6FFFA0EDBCFE6FF0FDFE552E552010E7C
:102D7000E552E7CFD9FF1200D9CFE6FFE1CFD9FF67
:102D8000FB0EDBCFD2F0FC0EDBCFD3F0FD0EDBCFA2
:102D9000D4F0FE0EDBCFD5F0F90EDBCFE6FFFA0E56
:102DA000DBCFE6FF2FDFE552E552010EE552E7CF1C
:0A2DB000D9FF1200000C8DEF15F0A2
:062DBA00120100020000FE
:102DC0000008D804090001000102000109022000E6
:102DD000010100C032090400000208065000070586
:102DE00081024000010705010240000104030904BB
:102DF00034034D006900630072006F0063006800D7
:102E000069007000200054006500630068006E00D7
:102E10006F006C006F0067007900200049006E00B1
:102E200063002E003A034D006900630072006F00DA
:102E3000630068006900700020004D0061007300AD
:102E400073002000530074006F007200610067007F
:102E50006500200044007200690076006500CC2DFA
:0A2E600000EC2D00F02D00242E00E0
:062E6A00D9CFE6FFE1CF25
:102E7000D9FFE652DF6A0F0EDF5C07E2540EE66E02
:102E8000D4EC18F0E552DF2AF6D7E552E552E7CF49
:102E9000D9FF1200D9CFE6FFE1CFD9FF8096808419
:102EA000E4DFFE0EDB50000814E28086540EE66E6E
:102EB000D4EC18F0E5528096540EE66ED4EC18F07F
:102EC000E552540EE66ED4EC18F0E552FE0EDB0629
:102ED000E8D78094CADFE552E7CFD9FF1200D9CFF7
:102EE000E6FFE1CFD9FFFE0EDBCFE6FFD3DFE552F1
:102EF000FAD780868094FFD7929692948086540E5B
:102F0000E66ED4EC18F0E5528084AFDF80968094B2
:042F100035EF17F092
:0C2F14002A0EF66E100EF76E000EF86E1E
:102F200000010900F550E16F0900F550E26F03E17F
:102F3000E16701D03DD00900F550DC6F0900F55084
:102F4000DD6F0900F550DE6F09000900F550E96EEC
:102F50000900F550EA6E090009000900F550DF6F1D
:102F60000900F550E06F09000900F6CFE3F0F7CF54
:102F7000E4F0F8CFE5F0DCC0F6FFDDC0F7FFDEC01F
:102F8000F8FF0001DF5302E1E05307E00900F550CC
:102F9000EE6EDF07F8E2E007F9D7E3C0F6FFE4C022
:102FA000F7FFE5C0F8FF0001E107000EE25BBFD7C5
:022FB00012000D
:0E2FB20009C013F008C012F007C011F007505C
:102FC0000C02F4CF05F0F3CF04F008500D02F4CF5B
:102FD00007F0F3CF06F00C02F3500526F45006225A
:102FE000E86A072211500D02F3500526F45006221C
:102FF000E86A072209500C02F3500626F450072213
:1030000009500D02086AE86A0822F3500726F450B6
:10301000082211500E02F3500626F4500722096AC6
:10302000E86A0822092212500E02F3500726F450D3
:103030000822E86A092213500E02F3500826F450C1
:043040000922000C55
:0C304400FB0EE3CFF6FFFC0EE3CFF7FF1E
:10305000FD0EE3CFF8FFFE0EE3CFE9FFFF0EE3CF57
:10306000EAFFE9CFF3FFEACFF4FFF90EE35003E103
:10307000FA0EE35009E0F90EE30602E2FA0EE30667
:103080000900F5CFEEFFF1D71200FE0EE3CFE9FF06
:10309000FF0EE3CFEAFFE9CFF3FFEACFF4FFFB0E29
:1030A000E35003E1FC0EE35009E0FB0EE30602E20D
:0E30B000FC0EE306FD0EE350EE6EF1D71200AB
:0230BE0004D834
:1030C00072EC08F007D8FCD70F0EC1121CEC08F008
:1030D00081EF16F0200E0001AB5D06E36D50020B90
:1030E00001E0120053EC10F0120012001200120066
:1030F000120037EF10F012001E0EE66E010EE66EA3
:10310000BEEC0EF0E552E552F1EF0FF06D840001D8
:10311000080EE96F070EEA6FE907000EEA5BE95156
:08312000EA11FAE16D941200BE
:08312800D9CFE6FFDACFE6FF84
:10313000E1CFD9FFE2CFDAFFFF0EE76EFC0EDBCF67
:1031400014F0E75014161450A96EFB0EDB50A86E55
:10315000A69EA69CA684F29E550EA76EAA0EA76EEA
:10316000A682F28EA694E552E5CFDAFFE7CFD9FF2B
:0231700012004B
:0E317200D9CFE6FFDACFE6FFE1CFD9FFE2CFFB
:10318000DAFFFF0EE76EFC0EDBCF14F0E7501416EB
:103190001450A96EA69CA69EA680A850E552E5CF25
:0831A000DAFFE7CFD9FF1200AE
:0831A800FF0EE3501B6EEF0E59
:1031B00001D0F30EE76EE72EDBEF18F00C0E1A6E5F
:1031C000E76AE72EE1EF18F01A2EE0EF18F01B2E59
:0631D000D9EF18F0120017
:0A31D60000800402200000004D6993
:1031E00063726F6368704D6173732053746F7261A3
:0A31F00067652020202030303031C8
:0631FA0017EE00F027EEC5
:1032000000F0F86A019C8AEC17F01DEC19F05FECF5
:0632100018F0FBD71200CC
:0A321600FF0EE350E84E1200000026
:0C32200000D000D000D0E82EFAD7120039
:04322C0000EE00F0C0
:0A3230000F0EEE6AEA62FDD71200ED
:02323A00120080
:03323C00FF000090
:00000001FF
