:020000040000FA
:06000000F4EF04F0120011
:06080000F4EF04F0120009
:060818001CEF04F01200C9
:06082A000100300A00008D
:080830006A0000000300000053
:08083800D8CFE4FFE0CFE4FF9C
:10084000E46EDACFE4FFE2CFDAFFE9CFE4FFEACFEC
:10085000E4FFF6CFE4FFF7CFE4FFF3CFE4FFF4CFFC
:10086000E4FFFACFE4FF00EE00F0100EE80403E32B
:10087000EECFE4FFFBD7E6520001010E6B6F040ED2
:10088000806EF294050E106E0C6E6AC007F002ECDA
:1008900005F003C06AF0000103506A2B106E010ED0
:1008A000035204E0E846FE0B1006FCE1FF0F0001D6
:1008B0006C6F806EE55200EE0FF0100EE80403E35B
:1008C000E5CFEDFFFBD7E5CFFAFFE5CFF4FFE5CFAE
:1008D000F3FFE5CFF7FFE5CFF6FFE5CFEAFFE5CF82
:1008E000E9FFE5CFDAFFE550E5CFE0FFE5CFD8FF40
:1008F0001000D9CFE6FFE1CFD9FF030EE126926ABF
:10090000806A0F0EC16E860EE66ED8EC04F0F28E91
:02091000FFD70F
:0E0912002A0EF66E080EF76E000EF86E00014B
:100920000900F550656F0900F550666F03E16567D2
:1009300001D03DD00900F550606F0900F550616F9E
:100940000900F550626F09000900F550E96E0900D1
:10095000F550EA6E090009000900F550636F0900BF
:10096000F550646F09000900F6CF67F0F7CF68F023
:10097000F8CF69F060C0F6FF61C0F7FF62C0F8FF12
:100980000001635302E1645307E00900F550EE6E85
:100990006307F8E26407F9D767C0F6FF68C0F7FF9E
:1009A00069C0F8FF00016507000E665BBFD7120043
:1009B000D9CFE6FFDACFE6FFE1CFD9FFE2CFDAFF0A
:1009C000FD0EDB507F0BD56ED76AD66AF294FD0E12
:1009D000DBAE02D0F28A01D0F29AD58EE552E5CF95
:0809E000DAFFE7CFD9FF120096
:0809E80013EE00F023EE00F015
:1009F000F86A0F9C89EC04F017EC05F079EC04F030
:040A0000FBD712000E
:0C0A0400036A080EE76ED8900736033630
:100A10000C50035C02E3036E072AE72EF7D712009F
:0E0A200000EE00F00F0EEE6AEA62FDD7120043
:020A2E001200B4
:030A3000000000C3
:00000001FF
