:020000040000FA
:0600000072EF2BF012006C
:0608000072EF2BF0120064
:0610000072EF2BF012005C
:06102A0002002D5700003A
:1010300022020000010000004A5700001E020000CA
:0410400002000000AA
:0C1044005EEC0DF0FB0EDBCFF3FFDB06D3
:10105000F35000090AE0ACEC0DF0FA0E17EC0EF0BC
:10106000F3E1151CF1E1010E01D0000E8DEF0DF042
:101070005EEC0DF03B0EE12402E3E168E652E16E26
:10108000010EDB6A020EDB6AF90EDBCFF6FFFA0E09
:10109000DBCFF7FFFB0EDBCFF8FF0800F550DF6E6C
:1010A000DF5002E1B1EF0CF0250EDF5C02E0A4EFAF
:1010B0000CF0030EDB6A040EDB6A050EDB6A060E1B
:1010C000DB6A070EDB6AC6EC0CF02D0EDF5C0CE071
:1010D0002B0EDF5C09E0200EDF5C06E0230EDF5CF8
:1010E00003E0300EDF5C1AE1DF50300A14E0130A2F
:1010F0000FE0030A0AE00B0A05E0060AE4E1030E2A
:10110000DB80E1D7030EDB82DED7030EDB84DBD787
:10111000030EDB86D8D7030EDB88D5D72A0EDF5C1B
:101120001BE1C2EC0CF010EC0DF010E0030EDB80C4
:1011300006680768130EDBCF0BF0140EDBCF0CF044
:1011400049EC19F0040E04C0DBFF03D0130EF9ECD8
:101150000CF0C6EC0CF00BD0090EDB6A67EC0DF05E
:1011600003E0DBEC0DF0FAD7090EF9EC0CF0030EFE
:10117000DBB0DB982E0EDF5C1BE1C6EC0CF02A0E18
:10118000DF5C0BE1C2EC0CF010EC0DF003E1130E90
:101190004BEC0DF0C6EC0CF00BD0090EDB6A67ECE3
:1011A0000DF003E0DBEC0DF0FAD7090E4BEC0DF07F
:1011B000680EDF5C07E1C6EC0CF0680EDF5C1DE139
:1011C000030E18D0740EDF5C17E07A0EDF5C14E0BB
:1011D000480EDF5C06E0540EDF5C03E05A0EDF5C75
:1011E00002E1020E07D06C0EDF5C03E06A0EDF5CEA
:1011F00004E1010E9EEC0DF0C9DBDF506E0A01E147
:101200007FD31E0A01E192D1200A01E18FD13F0A6A
:1012100001E149D11A0A01E146D10D0A01E143D1A8
:10122000200A01E140D13A0A01E13DD1200A01E161
:101230003AD1260A01E135D10D0A01E132D11A0A6B
:1012400001E1D9D0200A4AE0300A1FE0460A0EE048
:10125000250A01E083D3D950F90FE96EFF0EDA2099
:10126000EA6E010EEE5E000EEE5AEE5AACEC0DF098
:10127000250EE66E95DB03E1151C01E169D3A8ECB0
:101280000DF001E26BD3DB2A69D3080EDB6A040E92
:10129000DB50010806E2040EDB0470EC0DF0DB50BD
:1012A0008BDB080EDB5009E0030EDB50010B05E180
:1012B00072DB01E04DD3080EDB6A64DBEFCFDFFFAA
:1012C00020EC0EF003E1151C01E142D3A8EC0DF077
:1012D00001E3DB2A60DB01E141D33AD3070EDB50A7
:1012E00002080FE1ECEC0DF0030EB3EC0DF00E0E66
:1012F000EECFDBFF0F0EEECFDBFF100EEECFDBFFEE
:1013000020D0F70EDBCF17F0F80EDBCF18F0020E6F
:10131000175E000E185AF70E17C0DBFFF80E18C044
:10132000DBFF17C0E9FF18C0EAFFA3EC0DF0166A57
:101330000E0E14C0DBFF0F0E15C0DBFF100E16C023
:10134000DBFF0E0EDBCFE6FF0F0EDBCFE6FF100E4E
:10135000DBCFE6FFC8EC28F0E552E552E552130E6C
:1013600005C0DBFF140E06C0DBFF060EDB5005E0F8
:10137000130EE7EC0DF001E26ADB0BEC0EF002E27B
:10138000130E37DBCEEC0DF006E0040EE7EC0DF0AB
:1013900002E2050E2EDB030EDBB005D0FCDA01E025
:1013A000D7D2080EDB6A090EDB6A0E0EDBCFF6FF22
:1013B0000F0EDBCFF7FF100EDBCFF8FF0800F55064
:1013C000DF6EDF5014E011EC0EF011E220EC0EF0B5
:1013D00003E1151C01E1BCD2BBDB01E3DB2A090EF2
:1013E000DB2AD9500E0FE96E000ECBDBE7D7D3DA3C
:1013F00001E1B4D2ADD2C6DA110EEECFDBFF120E90
:10140000EDCFDBFF110EDBCFE6FF120EDBCFE6FFE9
:10141000BAEC28F0E552E552130EF3CFDBFF140EC1
:10142000F4CFDBFF060EDB5004E0130ED0DB01E24D
:101430000EDB0BEC0EF002E2130EDBDAAFDB05E0A5
:10144000040EC5DB02E2050ED4DA030EDBB005D0D4
:10145000A2DA01E07DD2080EDB6A090EDB6A110E0A
:10146000DBCFE9FF120EDBCFEAFFEFCFDFFFDF506C
:1014700014E0D7DB12E2E4DB03E1151C01E168D2E2
:1014800067DB01E3DB2A090EDB2A110EDB2ADBCF47
:10149000E9FF120EE8E3DB2AE6D77DDA01E15ED24E
:1014A00057D2030EDB8E070EDB0410E195DB040E32
:1014B0005ADB0A0EEECFDBFF0B0EEECFDBFF0C0E7E
:1014C000EECFDBFF0D0EEECFDBFF6CD0070EDB5057
:1014D00003082CE1030EDBAE0DD0B2DA020E76DA91
:1014E000EFCF14F0156A166A176A14AE39D0156872
:1014F000166835D0F70EDBCF15F0F80EDBCF16F0FF
:10150000020E155E000E165AF70E15C0DBFFF80E20
:1015100016C0DBFF15C0E9FF16C0EAFFEFCF14F0DD
:101520000A0E14C0DBFF0B0EDB6A38D0070EDB504F
:10153000020809E1030EDBAE04D059DB16AE10D071
:101540000ED055DB0DD0030EDBAE12D079DA020ED1
:101550003DDAF9DA166A176A15AE02D0166817680E
:10156000E2DA0C0E16C0DBFF0D0E17C0DBFF1AD03F
:10157000F70EDBCF16F0F80EDBCF17F0020E165E7B
:10158000000E175AF70E16C0DBFFF80E17C0DBFF70
:1015900016C0E9FF17C0EAFFD6DAC5DA0C0EDB6A1F
:1015A0000D0EDB6A060EDB5005E1010EF36E050E33
:1015B000F3CFDBFF150EDB6A160EDB6AD950370F4F
:1015C000146E000EDA20156E390E14C0DBFF3A0ED1
:1015D00015C0DBFF380EDB6A080EDB6A0A0EAEDAD6
:1015E000DF50780A12E0200A10E0280A0CE0200AF6
:1015F0000AE03F0A06E00D0A02E0200A08E1020EB6
:1016000005D0080E03D0080EDF26100E97DA030E61
:10161000DBBE02D0DB92DB94DB50800B24E08ADA65
:10162000D890030EEB50000A08E6000EEE5C000EA8
:10163000EE58000EEE58000EEE5815E213DA096867
:101640000A680B680C68F6EC29F00A0E00C0DBFF94
:101650000B0E01C0DBFF0C0E02C0DBFF0D0E03C042
:10166000DBFF2D0E08D0030EDBA202D02B0E03D021
:10167000DBA408D0200EF36E170EF3CFDBFF150EA0
:10168000DB2A02D0170EDB6A050EDB5003E1B7D967
:1016900001E189D01C0E146E570E156E000E166EE9
:1016A000070EDBCF17F0186A196A1A6A17C009F01B
:1016B00018C00AF019C00BF01AC00CF0D3D97CEC9A
:1016C0002AF014500024F36E15500120F46E1650C9
:1016D0000220F86EF4CFF7FFF3CFF6FF0800090EF3
:1016E000F5CFDBFF580EDF5C0FE1610EF36E090EE4
:1016F0007BD90AE3200E146E090EDBCFE7FF1450EE
:10170000E75E090EE7CFDBFF070EDBCF14F0156AAB
:10171000166A176A0FDA14C009F015C00AF016C06D
:101720000BF017C00CF0EECF04F0EECF05F0EECFCB
:1017300006F0EFCF07F07CEC2AF007C0EDFF06C003
:10174000EDFF05C0EDFF04C0EFFF390EDBCFE9FF71
:10175000DB063A0EDBCFEAFF01E2DB06090EDBCF48
:10176000EFFF150EDB2A4BD995E1030EDBA61DD04A
:101770006F0EDF5C06E1C1D918E3150EDB285BDADA
:1017800014D0780EDF5C09E0580EDF5C06E0620ED4
:10179000DF5C03E0420EDF5C08E1020EF36E160E22
:1017A000F3CFDBFF02D0150EDB6A030EDB50100B0C
:1017B0000EE0040EDBCF14F0050EDB50D88014547D
:1017C00006E2060EDB5003E1040EDB5034DA95D955
:1017D0000AE2050EDBCFE7FF150EDB50E75E050ED4
:1017E000E7CFDBFF02D0050EDB6A040EDBCF14F07F
:1017F000160E45D9D880145414E2160EDBCFE6FF3E
:10180000150EDBCFE6FF040EDBCFE6FF050EDB5047
:10181000E552E75CE552D880E754E552D880E754BA
:101820005FD9030EDB50010B0BE1080EDB5008E023
:10183000B2D801E08DD0080EDB50BED8080EDB6AAE
:10184000170EDB5007E088D9170EF1D903E1151CFC
:1018500001E17ED0160EDB5016E07ED9300EE66E2A
:101860009FD802E1151C74E077D9DFCFE6FF39EC91
:1018700029F0E552E552E552F4CF15F00001F31CD2
:1018800002E1151C65E0050EDBCF14F0160EDB50EF
:10189000D880145409E2050EDBCFE7FF160EDB50AB
:1018A000E75E050EE7CFDBFF300EE66E050ECBD907
:1018B0004FE1390EDB2ADBCFE9FF3A0E01E3DB2AE9
:1018C000DBCFEAFF090EEFCFDBFFDB500EE044D9A0
:1018D000090EADD902E1151C3BE0390EDB2ADBCF46
:1018E000E9FF3A0EEDE3DB2AEBD755D831E1160ECE
:1018F000DBCFE6FF080EC3D8E552E7245DD82ED033
:10190000070EDB50030A1CE0010A14E0030A07E09B
:101910007BD9DBCFEEFF020EDBCFEDFF1FD0F5D87A
:10192000196A17AE02D0186819682CD8BCD819C02B
:10193000EEFF14D0EAD817BE186824D8B4D80ED059
:1019400063D9DBCFEFFF0AD07BD905E1151C03E19A
:10195000F368F46810D0FCD801E3DB2A79D94DEFA5
:1019600008F0010EDBCF14F0020EDBCF15F014C02F
:10197000F3FF15C0F4FF3B0EE15C02E2E16AE552C1
:10198000E16ECBD029D9020EB3EF0DF061D908007A
:10199000F550DF6E1200200EE66E080E23EF0EF0FB
:1019A00039EC29F0E552E552E552F3CF14F0F4CFCB
:1019B00015F00001F31C1200146E156AD950010FC6
:1019C0004DD91450EE261550ED221200185E000E6F
:1019D000195AF70E18C0DBFFF80E19C0DBFF18C04C
:1019E000E9FF19C0EAFF1200DBCFF4FFF350F45C0B
:1019F0001200DB50E76E040EE7CFDBFF12000A0E89
:101A0000DBCF14F00B0EDBCF15F00C0EDBCF16F096
:101A10000D0EDBCF17F01450151016101710120012
:101A2000130EEECFDBFF140EEDCFDBFF130EDBCF7B
:101A300014F0140EDBCF15F00001800E1514120007
:101A4000F70EDBCF18F0F80EDBCF19F01200050E01
:101A5000DB50E66ED950130F01D9E552E750EE6E18
:101A6000ED6A12000A0EDBCF04F00B0EDBCF05F09F
:101A70000C0EDBCF06F00D0EDBCF07F01200DBCF34
:101A8000E6FF150EDBCFE6FF050EDB50E552E7243F
:101A9000E552E7241200DB50CED8010EF36E060E9D
:101AA000F3CFDBFF1200EE50EFCFEAFFE96E16C076
:101AB000EEFF17C0EEFF18C0EEFF1200D9CFE6FF11
:101AC000DACFE6FFE1CFD9FFE2CFDAFF1200DFCFB6
:101AD000E6FFE66A4EEC2BF0E552E552F3501200B9
:101AE000E76E080EE7CFDBFF1200EECF14F0EECF6B
:101AF00015F0EFCF16F0176A1200050EDBCF14F0C9
:101B0000150EDB50D88014541200010EDBCF16F0F6
:101B1000020EDBCF17F0186A1200E552E5CFDAFFAC
:101B2000E7CFD9FF12000A0E14C0DBFF0B0E15C061
:101B3000DBFF1200D9500A0F2EEF0EF0F36E070EE6
:101B4000F3CFDBFF1200EECF14F0EFCF15F0120051
:101B5000010EDB2A020E1200FC0EDBCFE6FFFD0EAB
:101B6000DBCFE6FF1200145E000E155AF70E14C00C
:101B7000DBFFF80E15C0DBFF14C0E9FF15C0EAFF5C
:101B80001200DA20EA6EEF2AEECFF6FF000EEF2207
:101B9000EECFF7FFEF22EECFF8FF1200040EDBCFFF
:101BA000E6FF130EDB50E552E75C9ADFDB5004DF03
:101BB000060EDB501200090EDB500A0DF350DF2435
:101BC000D00FE76E090EE7CFDBFFC6EF0CF0DB505E
:101BD000F36E050EF4EF0CF0F70EDBCF14F0F80EF9
:101BE000DBCF15F01200DFCFE6FFD0EF0CF028DFDF
:101BF000030EECDE75EF0DF022EC08F0E552E55235
:101C0000E552E55200091200BDDEEE50EFCFEAFFCB
:101C1000E96E010E1200130EDB50F36E040EF4EFAA
:101C20000CF0040EDB50F36E090EF4EF0CF0DBCF7A
:101C3000E6FFD0EF0CF0E76E050EE7CFDBFF1200FA
:101C40008BDFF3EF0DF0DBCFE6FF86DFFCEF0DF06F
:101C5000D950F90FE96EFF0EC1EF0DF0E96E000EDD
:061C6000DA20EA6E12001A
:0A1C660002011A6B000EE66EE66A3A
:101C7000E1EC2AF0E552E5521200070EE66EFDECAB
:101C80002AF0E55233EF0EF09EEF2BF002011A51CD
:101C900002E0010E12D0C2EC2AF0F3CF14F0F4CF20
:101CA00015F0B10ED88014545B0E155404E20201F5
:101CB000010E1A6F02D0000E00D01200D9CFE6FF3D
:101CC000E1CFD9FF060EE126200EE66ECCEC12F035
:101CD000E552200EE66ECCEC12F0E552200EE66ED8
:101CE000CCEC12F0E55299EC25F01CC014F01DC0AC
:101CF00015F0040ED89015321432E804FBE1FF0E03
:101D000014160F0E151614C0DEFF15C0DDFF000EF1
:101D1000DFCF06F0010EDBCF07F0CAEC16F0020EA3
:101D200005C0DBFF030E06C0DBFF040E07C0DBFFB0
:101D3000050E08C0DBFFDECF14F0DDCF15F0E80E96
:101D4000145C030E155805E2200EE66ECCEC12F082
:101D5000E552DECF14F0DDCF15F0640E145C000EFA
:101D6000155805E2200EE66ECCEC12F0E552DECFFF
:101D700014F0DDCF15F00A0E145C000E155805E2C4
:101D8000200EE66ECCEC12F0E552DECFE6FFDDCFA2
:101D9000E6FF800E146E550E156E166A14C0E6FF2F
:101DA00015C0E6FF16C0E6FFEDEC28F0176E050E35
:101DB000E15E1750020EDBCF14F0030EDBCF15F0FF
:101DC000040EDBCF16F0050EDBCF17F00A6A0B6AA4
:101DD0000C6A0D6A14C005F015C006F016C007F0B5
:101DE00017C008F065EC18F0010A2EE12D0EE66E22
:101DF000CCEC12F0E552020EDBCF14F0030EDBCF79
:101E000015F0040EDBCF16F0050EDBCF17F00A6AD3
:101E10000B6A800E0C6EBF0E0D6E14C005F015C05F
:101E200006F016C007F017C008F0C9EC17F0020E54
:101E300005C0DBFF030E06C0DBFF040E07C0DBFF9F
:101E4000050E08C0DBFF05D0200EE66ECCEC12F0CC
:101E5000E552020EDBCF14F0030EDBCF15F0040EBB
:101E6000DBCF16F0050EDBCF17F00A6A0B6A800E87
:101E70000C6E450E0D6E14C005F015C006F016C0B0
:101E800007F017C008F076EC17F0020E05C0DBFF74
:101E9000030E06C0DBFF040E07C0DBFF050E08C003
:101EA000DBFF020EDBCF14F0030EDBCF15F0040EC8
:101EB000DBCF16F0050EDBCF17F00A6A0B6AA00E17
:101EC0000C6E400E0D6E14C005F015C006F016C065
:101ED00007F017C008F0C9EC17F0020E05C0DBFFD1
:101EE000030E06C0DBFF040E07C0DBFF050E08C0B3
:101EF000DBFF020EDBCF14F0030EDBCF15F0040E78
:101F0000DBCF16F0050EDBCF17F0F70EDBCF18F0A6
:101F1000F80EDBCF19F0F90EDBCF1AF0FA0EDBCF9B
:101F20001BF018C00AF019C00BF01AC00CF01BC04F
:101F30000DF014C005F015C006F016C007F017C06C
:101F400008F0DFEC16F0020E05C0DBFF030E06C042
:101F5000DBFF040E07C0DBFF050E08C0DBFF020E2F
:101F6000DBCF05F0030EDBCF06F0040EDBCF07F06E
:101F7000050EDBCF08F0FB0EDBCF0AF0FC0EDBCF4B
:101F80000BF0FD0EDBCF0CF0FE0EDBCF0DF0C9EC3D
:101F900017F0020E05C0DBFF030E06C0DBFF040EC8
:101FA00007C0DBFF050E08C0DBFF020EDBCF05F02C
:101FB000030EDBCF06F0040EDBCF07F0050EDBCF00
:101FC00008F036EC18F006C0DEFF07C0DDFFDECFFC
:101FD000E6FFDDCFE6FF7C0E146E550E156E166A19
:101FE00014C0E6FF15C0E6FF16C0E6FFEDEC28F0D2
:101FF000176E050EE15E1750000EDFCF06F0010EE2
:10200000DBCF07F0CAEC16F005C014F006C015F0DF
:1020100007C016F008C017F0D950020FE96EDACFEA
:10202000EAFFEECF05F0EECF06F0EECF07F0EFCFF0
:1020300008F014C00AF015C00BF016C00CF017C061
:102040000DF0DFEC16F008C0EDFF07C0EDFF06C095
:10205000EDFF05C0EFFF146A156A200E166E410EE3
:10206000176ED950020FE96EDACFEAFFEECF05F016
:10207000EECF06F0EECF07F0EFCF08F014C00AF075
:1020800015C00BF016C00CF017C00DF0C9EC17F01E
:1020900008C0EDFF07C0EDFF06C0EDFF05C0EFFF74
:1020A000020EDBCF05F0030EDBCF06F0040EDBCF14
:1020B00007F0050EDBCF08F036EC18F006C0DEFFA7
:1020C00007C0DDFFDECFE6FFDDCFE6FF790E146E41
:1020D000550E156E166A14C0E6FF15C0E6FF16C051
:1020E000E6FFEDEC28F0176E050EE15E1750000ECE
:1020F000DFCF06F0010EDBCF07F0CAEC16F005C00B
:1021000014F006C015F007C016F008C017F0D9503B
:10211000020FE96EDACFEAFFEECF05F0EECF06F060
:10212000EECF07F0EFCF08F014C00AF015C00BF0A7
:1021300016C00CF017C00DF0DFEC16F008C0EDFF74
:1021400007C0EDFF06C0EDFF05C0EFFF146A156A7A
:10215000200E166E410E176ED950020FE96EDACFBF
:10216000EAFFEECF05F0EECF06F0EECF07F0EFCFAF
:1021700008F014C00AF015C00BF016C00CF017C020
:102180000DF0C9EC17F008C0EDFF07C0EDFF06C069
:10219000EDFF05C0EFFF020EDBCF05F0030EDBCF36
:1021A00006F0040EDBCF07F0050EDBCF08F036ECAF
:1021B00018F006C0DEFF07C0DDFFDECFE6FFDDCF93
:1021C000E6FF790E146E550E156E166A14C0E6FF02
:1021D00015C0E6FF16C0E6FFEDEC28F0176E050E01
:1021E000E15E1750000EDFCF06F0010EDBCF07F0E7
:1021F000CAEC16F005C014F006C015F007C016F0C2
:1022000008C017F0D950020FE96EDACFEAFFEECF1F
:1022100005F0EECF06F0EECF07F0EFCF08F014C0D8
:102220000AF015C00BF016C00CF017C00DF0DFEC73
:1022300016F008C0EDFF07C0EDFF06C0EDFF05C0BA
:10224000EFFF146A156A200E166E410E176ED950F4
:10225000020FE96EDACFEAFFEECF05F0EECF06F01F
:10226000EECF07F0EFCF08F014C00AF015C00BF066
:1022700016C00CF017C00DF0C9EC17F008C0EDFF48
:1022800007C0EDFF06C0EDFF05C0EFFF020EDBCF7C
:1022900005F0030EDBCF06F0040EDBCF07F0050ED2
:1022A000DBCF08F036EC18F006C0DEFF07C0DDFF1C
:1022B000DECFE6FFDDCFE6FF790E146E550E156E0C
:1022C000166A14C0E6FF15C0E6FF16C0E6FFEDEC87
:1022D00028F0176E050EE15E1750060EE15C02E273
:1022E000E16AE552E16EE552E7CFD9FF1200D9CF9E
:1022F000E6FFE1CFD9FF020EE126200EE66ECCEC20
:1023000012F0E552200EE66ECCEC12F0E552200EF3
:10231000E66ECCEC12F0E55299EC25F01CC0DEFF25
:102320001DC0DDFF1CC014F01DC015F0040ED890B8
:1023300015321432E804FBE1FF0E14160F0E1516C9
:1023400014C0DEFF15C0DDFFDECF14F0DDCF15F0C9
:10235000E80E145C030E155805E2200EE66ECCEC78
:1023600012F0E552DECF14F0DDCF15F0640E145CF0
:10237000000E155805E2200EE66ECCEC12F0E55288
:10238000DECF14F0DDCF15F00A0E145C000E1558E8
:1023900005E2200EE66ECCEC12F0E552DECFE6FF51
:1023A000DDCFE6FF800E146E550E156E166A14C052
:1023B000E6FF15C0E6FF16C0E6FFEDEC28F0176E4D
:1023C000050EE15E1750020EE15C02E2E16AE552A1
:1023D000E16EE552E7CFD9FF12001E6AE66AE66AAF
:1023E000E66A3F0EE66EE66AE66AFA0EE66E420EB0
:1023F000E66E64DC146E080EE15E14501200010EED
:102400001E6EE66AE66AE66A3F0EE66EE66AE66A0F
:10241000FA0EE66E420EE66E51DC146E080EE15EB8
:1024200014501200020E1E6E77EF11F0938C938EF3
:102430001200D9CFE6FFE1CFD9FFFE0EDB5006E058
:10244000300EE66ECCEC12F0E55205D0310EE66EA1
:10245000CCEC12F0E552E552E7CFD9FF12008150E3
:10246000400B01E0010EE66EE4DFE5521200815000
:10247000800B01E0010EE66EDCDFE5521200040E77
:1024800002011B5D08E32A0EE66ECCEC12F0E55269
:1024900002011B6B07D0200EE66ECCEC12F0E55269
:1024A00002011B2B200EE66ECCEC12F0E552D7DFBA
:1024B000DEDF94EC25F0BADF90DF2C0EE66ECCEC7C
:1024C00012F0E5529CDF2C0EE66ECCEC12F0E552D9
:1024D000A9DF0A0EE66ECCEC12F0E5521200010EF6
:1024E000E66EB6EC16F0E552000906E00001630E58
:1024F000606F44EC0EF012D00001600507E13DEC86
:102500000EF0BDDF0001020E606F08D046EC0EF049
:0E251000000901E103D033EC0EF0B1DF120040
:02251E000001BA
:10252000E56BE66BE76BA26BE46B606B02011E6907
:102530001F690001010E616F1200D9CFE6FFE1CFE4
:10254000D9FF0001E751146E156AD890155004E6C2
:10255000800E145C000E155802E3000E19D0E551F0
:10256000EA6A800FE96E020EEA22FE0EDBCFEFFF71
:10257000E52BE551146E156AD890155004E6800ECF
:10258000145C000E155801E3E56BE72B010E00D03B
:10259000E552E7CFD9FF1200D9CFE6FFE1CFD9FF4F
:1025A000FE0EDB500A0808E10D0EE66EC6DFE552AE
:1025B000000902E1000E06D0FE0EDBCFE6FFBDDF14
:1025C000E55200D0E552E7CFD9FF1200D9CFE6FFA0
:1025D000E1CFD9FFFE0EDBCFE6FFDEDFE552FE0ED8
:1025E000DBCF14F0156A14BE156814C0F3FF15C0D4
:1025F000F4FF00D0E552E7CFD9FF1200D9CFE6FFB4
:10260000E1CFD9FFFE0EDB9EFE0EDB500D0A3EE051
:10261000180A2FE01D0A1CE0280A19E02A0A17E010
:10262000030A15E03F0E0001E45D23E2FE0EDBCF5E
:10263000E6FFB2DFE5520001E451EA6AA40FE96E59
:10264000000EEA22FE0EDBCFEFFFE42B29D028D0CC
:102650000001E4510DE0E407080EE66E9DDFE5524F
:10266000200EE66E99DFE552080EE66E95DFE55224
:1026700017D00001E45109E0E46B400EE66E8CDFF8
:10268000E5520A0EE66E88DFE5520AD00A0EE66EC3
:1026900083DFE5520001E45102E0010E606F00D0DB
:1026A000E552E7CFD9FF1200D9CFE6FFE1CFD9FF3E
:1026B000E652FE0EDBCFE6FF6FDFE5523A0EE66E26
:1026C0006BDFE552200EE66E67DFE552DF6A000140
:1026D000E451DF5C0FE2DFCFE9FFEA6AE9BEEA68B6
:1026E000A40EE926000EEA22EF50E66E55DFE55211
:1026F000DF2AEDD70A0EE66E4FDFE552E552E552CE
:10270000E7CFD9FF1200D9CFE6FFE1CFD9FF030E03
:10271000E126DF6AFD0EDBCFE9FFDB2AFE0EDBCF11
:10272000EAFF01E3DB2A020EEFCFDBFF300EF36E90
:10273000020EDBCFF4FFF350F45C0CE3020EDB502F
:10274000390808E3020EDB50D00FE76E010EE7CF29
:10275000DBFF30D0610EF36E020EDBCFF4FFF350DF
:10276000F45C0DE3020EDB50660809E3020EDB5059
:102770009F0F0A0FE76E010EE7CFDBFF1BD0410E64
:10278000F36E020EDBCFF4FFF350F45C0DE3020EA8
:10279000DB50460809E3020EDB50BF0F0A0FE76E5D
:1027A000010EE7CFDBFF06D0DF50146E030EE15CB5
:1027B0000BE208D0DBCFE6FFDF38F00BE552E71085
:1027C000DF6EA8D7E16AE552E16E1450E552E7CF1B
:1027D000D9FF1200D9CFE6FFE1CFD9FF040EE126E1
:1027E000DF6A010EF36E030EF3CFDBFFFD0EDBCFCE
:1027F000E9FFFE0EDBCFEAFF020EEFCFDBFFDB507F
:102800002D0808E1030EDB68FD0EDB2AFE0E01E356
:10281000DB2A09D0020EDB502B0805E1FD0EDB2A76
:10282000FE0E01E3DB2AFD0EDBCFE9FFDB2AFE0E05
:10283000DBCFEAFF01E3DB2A020EEFCFDBFF300E36
:10284000F36E020EDBCFF4FFF350F45C14E3020EE0
:10285000DB50390810E3020EDB50D00FE76E010E9B
:10286000E7CFDBFFDBCFE6FF0A0EDF02F350E552D6
:10287000E724DF6ED8D7030EDB50DF02F350146E6F
:10288000040EE15C03E200D0E16AE552E16E14500F
:10289000E552E7CFD9FF1200D9CFE6FFE1CFD9FF4C
:1028A000FE0EDB98DB9ADB9CDB9E0A0EF36EFE0EBF
:1028B000DBCFF4FFF350F45C07E2FE0EDB50300F89
:1028C000E66E6ADEE55207D0FE0EDB50610FF60FB2
:1028D000E66E62DEE552E552E7CFD9FF1200D9CFAE
:1028E000E6FFE1CFD9FFFE0EDB380F0BE66ED4DF3B
:1028F000E552FE0EDBCFE6FFCFDFE552E552E7CF34
:10290000D9FF1200D9CFE6FFE1CFD9FF080EE126AB
:1029100004D0430EE66EC8DEE5520001E451EA6AD7
:10292000A40FE96E000EEA222C0EEF6EA40EDE6EEE
:10293000000EDD6EDFCFE9FFDF2A010EDBCFEAFFFD
:1029400001E3DB2A040EEFCFDBFF050EDB6A060E88
:10295000DB6A070EDB6AE45102084FE2DFCFE9FFD2
:10296000DF2A010EDBCFEAFF01E3DB2AEF502C0860
:102970000BE1DECFE6FFDDCFE6FFC5DEE552E55237
:10298000E76E050EE7CFDBFFDFCFE9FFDF2A010EA1
:10299000DBCFEAFF01E3DB2AEF502C0801E0F4D79C
:1029A000DECF14F0DDCF15F0A40E145E000E155A24
:1029B0000001E451000115AE02D0D89003D0145CA0
:1029C000000E15581AE2010EF36E070EF3CFDBFF6F
:1029D000DECFE6FFDDCFE6FF96DEE552E552E76E9D
:1029E000060EE7CFDBFFD9CFE9FFDACFEAFF020E11
:1029F000EECFDBFF030EEDCFDBFF91EC23F0040EF7
:102A0000DB50480A01E1E2D00B0A01E1B8D0200A0C
:102A100001E1B2D0060A01E195D0150A01E18BD09F
:102A2000120A01E185D0030A01E17BD0180A72E0A5
:102A3000140A65E0050A58E01B0A53E0590A4EE003
:102A4000010A49E0590A40E03F0A23E0080A1AE077
:102A5000170A15E0250A08E0450EE66E25DEE55268
:102A60000001606BE46BC6D0060EDBCFE6FF050EFF
:102A7000DBCFE6FF30EC1CF0E552E552BBD060EC5A
:102A80001CF0B8D0050EDBCFE6FFF8EC1CF0E552E9
:102A9000B1D0070EDB5003E1DE6ADD6A08D0000129
:102AA000E451EA6AA40FE96E000EEA22EF6ADECF73
:102AB000E6FFDDCFE6FF050EDBCFE6FF92EC1DF073
:102AC000E552E552E55296D0050EDBCFE6FF06EC67
:102AD0001CF0E5528FD05AEC1CF08CD096EC23F011
:102AE00089D015EC24F086D0060EDBCFE6FF050E6C
:102AF000DBCFE6FF2CEC24F0E552E5527BD0060E4E
:102B0000DBCFE6FF050EDBCFE6FF4DEC24F0E55210
:102B1000E55270D0050EDBCFE6FF76EC24F0E552EF
:102B200069D0050EDBCFE6FF76EC19F0E55262D0F6
:102B3000EEEC1BF05FD0050EDBCFE6FF7BEC29F05F
:102B4000E55258D0200EE66E27DDE552050EDBCFAC
:102B5000E6FFC5DEE552200EE66E1EDDE552060EEE
:102B6000DBCFE6FFBCDEE5520A0EE66E15DDE55270
:102B70000001630E606F3ED06FEC12F03BD0050E8B
:102B8000DB50020A1FE0030A1AE0010A04E0000118
:102B9000620E606F1AD0070EDB500EE0020EDBCF24
:102BA000E6FF030EDBCFE6FF15DEE552E552E66EEB
:102BB000E3EC29F0E55202D0EDEC29F006D0F0EC80
:102BC00029F003D0F3EC29F000D014D0590E146E84
:102BD000550E156E166A14C0E6FF15C0E6FF16C046
:102BE000E6FFEDEC28F0E552E552E5520001630EF8
:102BF000606F00D0080EE15C02E2E16AE552E16E2E
:102C0000E552E7CFD9FF1200D9CFE6FFE1CFD9FFD8
:102C1000020EE1260001E751000829E20001E95116
:102C200026E10001E651156A800F146E020E15228E
:102C300014C0DEFF15C0DDFFDECFEAF0DDCFEBF024
:102C40000001010EEE6F0001EF6B0001E96F000162
:102C5000E62BE651146E156AD890155004E6800EE6
:102C6000145C000E155801E3E66BE707D3D70001AB
:102C7000A25111E1400EE66E620EE66E000EE66EA7
:102C8000BEEC20F0E552E552E552000904E0E8C050
:102C9000A2F00001A36B0001615116E0A2510008EF
:102CA00013E2616B400E146E550E156E166A14C059
:102CB000E6FF15C0E6FF16C0E6FFEDEC28F0E55292
:102CC000E552E5520001A26B60511DE1050EE725BA
:102CD000146E156AD890155004E6800E145C000E30
:102CE000155811E2A25100080EE2A351EA6A620FE0
:102CF000E96E000EEA22EF50E66E80DCE55200013C
:102D0000A32BA207E1D7605103E0E751000801E2DD
:102D100023D06051630A14E0010A02E0F3DD1CD005
:102D2000450EE66E39DCE552520EE66E35DCE552B4
:102D3000520EE66E31DCE552200EE66E2DDCE552D9
:102D40003E0EE66E29DCE552200EE66E25DCE552ED
:102D50000001606BE46B00D0020EE15C02E2E16A0C
:102D6000E552E16EE552E7CFD9FF1200D9CFE6FF79
:102D7000E1CFD9FF0001A251000806E2FE0EDB50B0
:102D800001E0A26B010E02D0000E00D0E552E7CFA9
:042D9000D9FF120055
:0C2D94000F9E08D00F9E07AE05D0066C05
:102DA000071EE86A07220F8E07C001F006C000F078
:102DB000136A126A8E0E026E036ADFEF18F00D7E40
:102DC0000F6A1BEC19F033EC19F00FB6C3EF18F0D3
:102DD0000FA20AD00FAA03D00FBEC3EF18F00FA4A2
:102DE000CFEF18F0CCEF18F00FAA05D00FACCFEF53
:102DF00018F0CCEF18F00FA00AD00FA808D00FBE23
:102E000004D00FA402D0D8EF18F0DCEF18F0126A4B
:102E1000036A0D50085C116E10E305C013F006C084
:102E200000F007C001F008C010F00AC005F00BC0A8
:102E300006F00CC007F00F3A09D00AC013F00BC01F
:102E400000F00CC001F00DC010F0116C0F9E0FBC13
:102E50000F8E10C002F00FB00BEF19F01A0E1160B8
:102E60000BEF19F0026A086A0FA408D0056C061E61
:102E7000071E081EE86A0622072208220FAC08D0A7
:102E8000136C001E011E021EE86A002201220222AB
:102E9000046A115207E00834073206320532043260
:102EA000112EF9D705501326065000220750012293
:102EB0000850022204C012F00F9E02AE0BD0126C1A
:102EC000131E001E011E021EE86A132200220122A8
:102ED00002220F8E02A006D0D880013200321332B7
:102EE0001232102A10C002F0DFEF18F00F6A1BEC4C
:102EF00019F033EC19F00FB6C3EF18F00FA205D09C
:102F00000FBAC3EF18F0CAEF18F00FBAD6EF18F0E7
:102F10000FA005D00FB8C3EF18F0D6EF18F00FB818
:102F2000CAEF18F0036A7F0E0824026EE86A0322D3
:102F30000D50025EE86A035A1A0E106E086A126A91
:102F4000136A006A016A0A50055E0B50065A0C505B
:102F5000075A000E085A09E70A5005260B500622A8
:102F60000C500722000E082201D0128AD890053694
:102F7000063607360836D890123613360036013634
:102F8000102EE1D7075006100510D8A4128ADFEFE3
:102F900018F00F6A1BEC19F033EC19F00FB6C3EF01
:102FA00018F00FA205D00FB8C3EF18F0CAEF18F051
:102FB0000FAA05D00FB0C3EF18F0CAEF18F00FB08A
:102FC00002D00FA802D0D6EF18F0036A0D500824E3
:102FD000026EE86A03227E0E025EE86A035A126AF3
:102FE000136A006A016A0C500702F4CF01F0F3CFB4
:102FF00000F00B500702F3501326F4500022000E8D
:1030000001220C500602F3501326F4500022000E49
:1030100001220A500702F3501226F4501322000E28
:10302000002201220B500602F3501226F450132204
:10303000000E002201220C500502F3501226F4501B
:103040001322000E002201220A500602F45012261A
:10305000000E1322002201220B500502F45012260A
:10306000000E132200220122DFEF18F00F6A1BEC82
:1030700019F00FB640EF18F00FA20ED00FB405D024
:103080007F0E076EFF0E066E1FD0800E076E066A5B
:103090001BD0076A066A18D00FB0FBD78F0E0860E6
:1030A000EDD77E0E0864F5D78E0E085C05E0D8904B
:1030B00007320632082AF8D70FA406D0066C071E7E
:1030C000E86A072207AEE5D712006EEC18F00FB6DB
:1030D000000C0FB0000C0FA4000C010C0F6A1BECCD
:1030E00019F033EC19F00FB612000FAE08D00FA094
:1030F00004D00FA802D00F8012000F9012000D50C4
:10310000085C0BE10C50075C08E10B50065C05E124
:103110000A50055C02E10F801200D8A002D00F8E89
:1031200010D008500DC008F00D6E07500CC007F00D
:103130000C6E06500BC006F00B6E05500AC005F071
:103140000A6E0D50085C10E0FF0F09E00F900FB4FD
:1031500003D00FAE0F8412000FAE0F9412000D2A91
:10316000D8900C320B320A320A50055E0B50065AC8
:103170000C50075A07BEEAD7D890053606360736F0
:10318000082EF8D7C8D77F0E086EFF0E076E066EA2
:10319000056E12007F0E0FBEFF0E086E02D07F0E6E
:1031A000086E800E076E066A056AF3D70FAE04D06C
:1031B000800E086E076AF7D7086A076AF4D70150CD
:1031C000001013101210F8E003BEF0D701BE0CD0AF
:1031D00002500310EBE0D890123613360036013659
:1031E0000206D8A00306F2D70350D4E10228D2E0A9
:1031F00012AE11D07F0E121402E113A00CD0132ACC
:10320000E86A0022012207E3D8800132003213323B
:10321000022A0228BFE00250C9E013C005F000C036
:1032200006F00134076E0230086E0732089E0FBEAA
:10323000088EC9EF18F00736083602E30F840F7EB8
:1032400006E10F80086A076A066A056A1200082804
:1032500003E0D88007321200D890073202E10F82D3
:1032600012000F8612000C360D3602E30F8C0F7E13
:1032700006E10F880D6A0C6A0B6A0A6A12000D28B3
:1032800003E0D8800C321200D8900C32EAE10F8AA9
:10329000120007C013F006C012F006500B02F4CF64
:1032A00005F0F3CF04F007500C02F4CF07F0F3CF92
:1032B00006F00B02F3500526F4500622E86A0722B6
:1032C00012500C02F3500526F4500622E86A072239
:1032D0000CAE6FEF19F01250065E1350075A13AE82
:0C32E000000C0B50065E0C50075A000C4E
:0432EC00D9CFE6FF51
:1032F000E1CFD9FF030EE12694EC25F0FE0EDB5062
:10330000050806E2580EE66ECCEC12F0E5522DD020
:10331000200EE66ECCEC12F0E552FE0EDB501E6E77
:1033200099EC25F01CC0DEFF1DC0DDFFDECF14F0E0
:10333000DDCF15F015C014F0156A020E14C0DBFFC6
:10334000DBCFE6FF6FEC14F0E552DECF14F0DDCFFB
:1033500015F0FF0E1416000E1516020E14C0DBFF3A
:10336000DBCFE6FF6FEC14F0E5520A0EE66ECCEC14
:1033700012F0E5520001630E606F030EE15C02E2A1
:10338000E16AE552E16EE552E7CFD9FF1200D9CFED
:10339000E6FFE1CFD9FF060EE126FE0EDB501E6EE2
:1033A00099EC25F01CC0DEFF1DC0DDFF000EDFCF55
:1033B00006F0010EDBCF07F0CCEC16F005C014F0E0
:1033C00006C015F007C016F008C017F00A6A0B6AAD
:1033D0000C6A470E0D6E14C005F015C006F016C03D
:1033E00007F017C008F076EC17F0020E05C0DBFFFF
:1033F000030E06C0DBFF040E07C0DBFF050E08C08E
:10340000DBFF670E146E660E156EA00E166E410E73
:10341000176ED950020FE96EDACFEAFFEECF05F052
:10342000EECF06F0EECF07F0EFCF08F014C00AF0B1
:1034300015C00BF016C00CF017C00DF0C9EC17F05A
:1034400008C0EDFF07C0EDFF06C0EDFF05C0EFFFB0
:10345000FE0EDB50030827E19A0E146E990E156ECE
:10346000166E3E0E176ED950020FE96EDACFEAFFE4
:10347000EECF05F0EECF06F0EECF07F0EFCF08F07D
:1034800014C00AF015C00BF016C00CF017C00DF0F8
:10349000E0EC16F008C0EDFF07C0EDFF06C0EDFF41
:1034A00005C0EFFF2BD0FE0EDB50040827E11F0EF6
:1034B000146E850E156E6B0E166E3E0E176ED9507D
:1034C000020FE96EDACFEAFFEECF05F0EECF06F09D
:1034D000EECF07F0EFCF08F014C00AF015C00BF0E4
:1034E00016C00CF017C00DF0DFEC16F008C0EDFFB1
:1034F00007C0EDFF06C0EDFF05C0EFFF020EDBCFFA
:1035000014F0030EDBCF15F0040EDBCF16F0050E22
:10351000DBCF17F00A6A0B6A0C6A0D6A14C005F05B
:1035200015C006F016C007F017C008F065EC18F0DB
:10353000010A2DE12D0EE66ECCEC12F0E552020EE2
:10354000DBCF14F0030EDBCF15F0040EDBCF16F04B
:10355000050EDBCF17F00A6A0B6A800E0C6EBF0EE9
:103560000D6E14C005F015C006F016C007F017C0A8
:1035700008F0C9EC17F0020E05C0DBFF030E06C011
:10358000DBFF040E07C0DBFF050E08C0DBFF020EE9
:10359000DBCF05F0030EDBCF06F0040EDBCF07F028
:1035A000050EDBCF08F036EC18F006C0DEFF07C0D2
:1035B000DDFFDECFE6FFDDCFE6FF750E146E550EA4
:1035C000156E166A14C0E6FF15C0E6FF16C0E6FFCA
:1035D000EDEC28F0176E050EE15E1750000EDFCF00
:1035E00006F0010EDBCF07F0CCEC16F005C014F0AE
:1035F00006C015F007C016F008C017F0D950020F2A
:10360000E96EDACFEAFFEECF05F0EECF06F0EECFAF
:1036100007F0EFCF08F014C00AF015C00BF016C089
:103620000CF017C00DF0DFEC16F008C0EDFF07C07E
:10363000EDFF06C0EDFF05C0EFFF146A156A200E0E
:10364000166E410E176ED950020FE96EDACFEAFFFF
:10365000EECF05F0EECF06F0EECF07F0EFCF08F09B
:1036600014C00AF015C00BF016C00CF017C00DF016
:10367000C9EC17F008C0EDFF07C0EDFF06C0EDFF75
:1036800005C0EFFF020EDBCF05F0030EDBCF06F027
:10369000040EDBCF07F0050EDBCF08F036EC18F098
:1036A00006C0DEFF07C0DDFFDECFE6FFDDCFE6FFB1
:1036B000720E146E550E156E166A14C0E6FF15C014
:1036C000E6FF16C0E6FFEDEC28F0176E050EE15E92
:1036D0001750000EDFCF06F0010EDBCF07F0CCEC69
:1036E00016F005C014F006C015F007C016F008C0AB
:1036F00017F0D950020FE96EDACFEAFFEECF05F0EE
:10370000EECF06F0EECF07F0EFCF08F014C00AF0CE
:1037100015C00BF016C00CF017C00DF0DFEC16F062
:1037200008C0EDFF07C0EDFF06C0EDFF05C0EFFFCD
:10373000146A156A200E166E410E176ED950020FCC
:10374000E96EDACFEAFFEECF05F0EECF06F0EECF6E
:1037500007F0EFCF08F014C00AF015C00BF016C048
:103760000CF017C00DF0C9EC17F008C0EDFF07C052
:10377000EDFF06C0EDFF05C0EFFF020EDBCF05F049
:10378000030EDBCF06F0040EDBCF07F0050EDBCF18
:1037900008F036EC18F006C0DEFF07C0DDFFDECF14
:1037A000E6FFDDCFE6FF720E146E550E156E166A3B
:1037B00014C0E6FF15C0E6FF16C0E6FFEDEC28F0EA
:1037C000176E050EE15E1750060EE15C02E2E16A3B
:1037D000E552E16EE552E7CFD9FF120094EC25F0F7
:1037E000030EE66ED4DDE552200EE66ECCEC12F050
:1037F000E552040EE66ECBDDE5520A0EE66ECCEC29
:0C38000012F0E5520001630E606F120030
:04380C00D9CFE6FF2B
:10381000E1CFD9FFE652A1EC2BF0FE0EDBCFE6FFA5
:10382000E66A19EC2BF0E552E552DF6E200EE66EEB
:10383000CCEC12F0E552DFCFE6FF6FEC14F0E5526E
:103840000A0EE66ECCEC12F0E552FE0EDBCF1CF257
:103850000001630E606FE552E552E7CFD9FF120019
:10386000D9CFE6FFE1CFD9FFA1EC2BF0FD0EDBCFE6
:10387000E6FFFE0EDBCFE6FFE66A57EC2AF0E552E4
:10388000E552E5524F0EE66ECCEC12F0E5524B0ECF
:10389000E66ECCEC12F0E5520A0EE66ECCEC12F0BD
:1038A000E55202011C6B0001630E606FE552E7CF29
:1038B000D9FF120002011C29E66EA8DFE5521200B2
:1038C000D9CFE6FFE1CFD9FFE652A1EC2BF0000102
:1038D000600503E10201680E1D6F0001630E606F59
:1038E00002011D51E66EE66A19EC2BF0E552E55235
:1038F0007F0BDF6EDF5003E07F0EDF5C01E112D053
:10390000DFCFE6FFCCEC12F0E552000904E1000144
:10391000020E606F07D002011D2B680E1D5D01E2D3
:1039200001D0DED7E552E552E7CFD9FF1200D9CF5B
:10393000E6FFE1CFD9FFE652A1EC2BF0FE0EDBCF84
:10394000E6FFE66A19EC2BF0E552E552DF6EFE0E5B
:10395000DB2A530EE66ECCEC12F0E552030EDF14B8
:10396000300FE66ECCEC12F0E552200EE66ECCEC99
:1039700012F0E552DF50E840E8403F0BE66E6FEC96
:1039800014F0E552200EE66ECCEC12F0E552A1ECFC
:103990002BF0FE0EDBCFE6FFE66A19EC2BF0E552CA
:1039A000E552DF6EFE0EDB2ADFCFE6FF6FEC14F090
:1039B000E552200EE66ECCEC12F0E552A1EC2BF0B5
:1039C000FE0EDBCFE6FFE66A19EC2BF0E552E5527E
:1039D000DF6EDFCFE6FF6FEC14F0E5520A0EE66E05
:1039E000CCEC12F0E552E552E552E7CFD9FF1200D8
:1039F000D9CFE6FFE1CFD9FF020EE1260001630E29
:103A0000606FA1EC2BF0010EE66EE66A19EC2BF06C
:103A1000E552E552030BDF6E040EE66EE66A19EC22
:103A20002BF0E552E552030BE76E010EE7CFDBFF0B
:103A3000DBCFE6FFDF50040DF350E552E710030A39
:103A400033E0010A31E0060A2FE00D0A2DE0050AF5
:103A500027E00D0A25E0070A23E00E0A21E0070A05
:103A60001EE00F0A0DE0050A0BE00F0A09E0070A45
:103A700007E0030A05E0090A03E00C0A01E018D098
:103A8000450EE66ECCEC12F0E5523F0EE66ECCEC45
:103A900012F0E5520A0EE66ECCEC12F0E55238D088
:103AA0000201040E1D6F04D00201010E1D6F00D033
:103AB0001DC2E6FF3CDFE552050E0201D8801D5510
:103AC0001D6F1DC2E6FF33DFE552FE0EDB5020E026
:103AD000430EE66ECCEC12F0E5520A0EE66ECCEC2C
:103AE00012F0E552E668010EE66EE66A57EC2AF03F
:103AF000E552E552E552A1EC2BF0E668040EE66EC5
:103B0000E66A57EC2AF0E552E552E552A1EC2BF0BB
:103B1000020EE15C02E2E16AE552E16EE552E7CFB6
:103B2000D9FF1200D9CFE6FFE1CFD9FF0E0EE12673
:103B30000001630E606F010EF36EFE0EDBCFF4FF2B
:103B4000F350F45C04E3FE0EDB5008080BE2520E67
:103B5000E66ECCEC12F0E5520A0EE66ECCEC12F0FA
:103B6000E552A5D0FE0EDB040B0DF350100FE76EEF
:103B7000FE0EE7CFDBFFD950FC0FE96EFF0EDA2017
:103B8000EA6EEE50ED106FE0D950020FE66E000EB7
:103B9000DA20E66ED950FC0FE66EFF0EDA20E66EF4
:103BA0008EEC24F0E552E552E552E552DF6EDF502F
:103BB0003AE04E0EE66ECCEC12F0E5522F0EDF5CD2
:103BC00006E12F0EE66ECCEC12F0E5520AD0200E84
:103BD000E66ECCEC12F0E552DFCFE6FF6FEC14F0AE
:103BE000E5520A0EE66ECCEC12F0E552DF6A0B0EDF
:103BF000DF5C13E2D950020F146EDACF15F0DF50FC
:103C00000F011424E96E000E1520EA6EEF50E66EE7
:103C1000CCEC12F0E552DF2AEAD70A0EE66ECCECC5
:103C200012F0E55244D0DF6A0B0EDF5C1CE2A1EC1F
:103C30002BF0D950020F146EDACF15F0DF500F01C0
:103C40001424E96E000E1520EA6EEF50E66EFE0EAB
:103C5000DB50DF24E66EE66A57EC2AF0E552E552C7
:103C6000E552DF2AE1D7DF6A0B0EDF5C19E2A1EC37
:103C70002BF0FE0EDB50DF24E66EE66A19EC2BF02B
:103C8000E552E552E76E010EE7CFDBFFDB5006E0C1
:103C9000010EDBCFE6FFCCEC12F0E552DF2AE4D7D1
:103CA0000A0EE66ECCEC12F0E552A1EC2BF00E0EF3
:103CB000E15C02E2E16AE552E16EE552E7CFD9FF4D
:023CC0001200F0
:0E3CC2006C500CE16896040100513C0BE84286
:103CD000E8420D0802E10ED801D046D808D0040E03
:103CE0006C5C03E1689650D802D0000E02D0010E41
:103CF00000D01200D9CFE6FFE1CFD9FFE652040190
:103D000004BF046B0201126B0A6B0B6B106B116B1F
:103D1000F1EC21F0DF6ADF50146E156A010E145CBD
:103D2000000E15581BE202010B5101E017D0F76A93
:103D3000DF34FE0BF736F66E9F0EF626500EF72296
:103D40000900F5CF14F00800F5CF15F004D015C028
:103D5000FAFF1450F96EFBDFDF2ADDD7EED8E5520B
:103D6000E552E7CFD9FF1200020E02010A5D0AE117
:103D7000A7D8040100BD03D0C80E006F02D0880E82
:103D8000006F01D020D91200040E0201135D0AE178
:103D900022C46EFF6E50000803E2050E136F02D0BE
:103DA000030E136F02010A0512E113D8020E02017D
:103DB000125D04E10401840E046F08D0040104BD07
:103DC00003D0C80E046F02D0880E046F01D0FBD858
:103DD0001200D9CFE6FFE1CFD9FF020EE1260201A2
:103DE000080E105D000E11590EE210C2DEFF11C266
:103DF000DDFF125103E1010E126F04D0120502E142
:103E0000020E126F03D0080EDE6EDD6A0401049309
:103E10000491010EDB500413DFCF05F4000EDB50DC
:103E20000201105F010EDB50115B280E0E6F040EB5
:103E30000F6F020114A31ED0D9CFE9FFDACFEAFF3A
:103E4000EE50ED1016E00CC2F6FF0DC2F7FF0800B1
:103E5000F5500EC2E9FF0FC2EAFFEF6E02010E2B12
:103E6000000E0F230C2B0D23DF06010E01E2DB06F3
:103E7000E3D71CD0D9CFE9FFDACFEAFFEE50ED103F
:103E800015E00CC2E9FF0DC2EAFFEF500EC2E9FFD8
:103E90000FC2EAFFEF6E02010E2B000E0F230C2B58
:103EA0000D23DF06010E01E2DB06E4D7020EE15C22
:103EB00002E2E16AE552E16EE552E7CFD9FF120076
:103EC000D9CFE6FFE1CFD9FF020EE126030E0401B0
:103ED0000015E76E010EE7CFDBFF01C4DFFFDE5008
:103EE00002011027DD501123280E0C6F040E0D6FF8
:103EF000D9CFE9FFDACFEAFFEE50ED1014E00CC2A3
:103F0000E9FF0DC2EAFFEF500EC2E9FF0FC2EAFF60
:103F1000EF6E0E2B000E0F230C2B0D23DF06010E70
:103F200001E2DB06E5D7020EE15C02E2E16AE5525E
:103F3000E16EE552E7CFD9FF12006D9802010B51F7
:103F40000CE10401080E016F200E026F040E036FD6
:103F5000840E006F0401046F35D0040120AF22D01D
:103F6000020110510401265D02011151040127597B
:103F700004E226C410F227C411F22BDF0201010E65
:103F80000A6F0401080E016F200E026F040E036F0A
:103F9000800E006F0401280E066F040E076FC80E16
:103FA000046F10D00201020E0A6F0401056BC80EE7
:103FB000046F0401080E016F280E026F040E036FD8
:103FC000C80E006F1200D9CFE6FFE1CFD9FFE6524D
:103FD000020E02010A5D36E16D50100B33E0040160
:103FE0000151146E156A080E141801E115502AE1EA
:103FF00000513C0BE842E8420D0824E10051800BDF
:1040000021E1200E026F040E036FDF6ADF50146E91
:10401000156A080E145C000E155813E2DF50EA6AA8
:10402000280FE96E040EEA22EF50E66EDF50EA6ACE
:10403000200FE96E040EEA22E552E750EF6EDF2A08
:10404000E5D70DD002010A6B0401080E016F200EA6
:10405000026F040E036F8C0E006F0401046BE552B7
:08406000E552E7CFD9FF120081
:08406800040120511F0B0108A7
:1040700001E05BD02051600BE842E842E842E842B0
:10408000E842010801E051D0245103E0240501E099
:104090004CD02151230A48E0010A40E0030A30E0F5
:1040A000010A25E0240A22E0070A1FE0010A1CE0B9
:1040B000030A11E0010A01E038D00201030E0B6F80
:1040C0000201F80E0C6F000E0D6F02011493020135
:1040D000080E106F2AD00201030E0B6F0201F80EBA
:1040E0000E6F000E0F6F21D020D01FD01ED0020106
:1040F000030E0B6F0201F00E0E6F000E0F6F15D046
:104100000201030E0B6F0201F00E0C6F000E0D6F1B
:10411000020114930201070E106F07D00201030E73
:104120000B6F22C4F7F001D000D012000001F06B39
:10413000C20EF16F010EF26FF36BF46BF56B080EAC
:10414000F66FE96BE86B1A0E726E1E0E736E040149
:10415000300E166F040E176F400E146F0401196FA6
:10416000380E1A6F040E1B6F880E186F0401780E3C
:104170001E6F040E1F6F400E1C6F1200D9CFE6FF9A
:10418000E1CFD9FF0001E86B040118BF30D0FC0E6D
:10419000DBCF14F01951D880145403E2FC0E19C47B
:1041A000DBFF0001E86BFC0EDB50E85D19E2E85133
:1041B000EA6A380FE96E040EEA22EF50E66EE85123
:1041C000E76EFD0EDBCFE9FFFE0EDBCFEAFFE75027
:1041D000E926000EEA22E552E750EF6EE82BE3D71E
:1041E0000401400E196F1817187D880E181300016E
:1041F000E85100D0E552E7CFD9FF1200D9CFE6FF52
:10420000E1CFD9FFE6520001E95101E02FD0DF6A8A
:10421000DF2ADF50146E156AFF0E141801E11550E5
:1042200001E10BD0FD0EDBCFE9FFDB2AFE0EDBCF79
:10423000EAFF01E3DB2AEF50EBE1DF50146E156A71
:10424000D950FD0FE96EFF0EDA20EA6E1450EE5ED3
:104250001550ED5AFD0EDBCFEAF0FE0EDBCFEBF092
:10426000DFCFEEF00001EF6B010EE96FE552E55292
:10427000E7CFD9FF1200D9CFE6FFE1CFD9FFE65251
:104280000001E95101E030D0DF6ADF2ADF50146E0F
:10429000156AFF0E141801E1155001E10CD0FD0E56
:1042A000DBCFF6FFDB2AFE0EDBCFF7FF01E3DB2AD5
:1042B0000800F550EAE1DF50146E156AD950FD0F81
:1042C000E96EFF0EDA20EA6E1450EE5E1550ED5ADC
:1042D000FD0EDBCFEAF0FE0EDBCFEBF0DFCFEEF032
:1042E0000001010EEF6FE96FE552E552E7CFD9FF0C
:1042F0001200D9CFE6FFE1CFD9FFE65204011CBF7F
:104300006BD0030E0001E95D01E1E96BE95101E1C8
:1043100063D0020EE95D06E104011D6B0001030E8E
:10432000E96F54D0E90552E1400E146E156AEE5162
:10433000145C000E155803E2400EDF6E02D0EEC092
:10434000DFFFDFCF1DF4DF50EE5DEE6F780EEC6F18
:10435000040EED6FEF0515E1DF5012E0EAC0F6FF45
:10436000EBC0F7FF0800F550ECC0E9FFEDC0EAFF35
:10437000EF6EEC2B000EED23EA2BEB23DF06ECD7E0
:1043800013D0DF5011E0EAC0E9FFEBC0EAFFEF50C5
:10439000ECC0E9FFEDC0EAFFEF6EEC2B000EED2361
:1043A000EA2BEB23DF06EDD7EE5110E104011D519E
:1043B000146E156A400E141801E1155004E1000155
:1043C000020EE96F03D00001030EE96F400E0401F5
:1043D0001C171C7D880E1C13E552E552E7CFD9FF50
:0243E0001200C9
:0E43E20004012051600BE842E842E842E84244
:1043F000E842000901E055D02151070A51E00B0ABB
:104400004FE0070A40E0010A2CE00B0A28E0020A0C
:1044100026E0030A22E0080A12E0010A0EE00F0A71
:104420000AE0030A01E03CD00201010E0B6F020119
:10443000040E136F36D036D834D090D832D0020163
:10444000010E0B6F0201150E0C6F020E0D6F0201B3
:1044500014930201010E106F24D0A8D822D0F4D8F2
:1044600020D00201010E0B6F0401245102010C6FD8
:104470000D6B160E0C27020E0D2302011493020180
:10448000010E106F0ED00201010E0B6F04012451BA
:10449000EA6A160FE96E020EEA2222C4EFFF01D08B
:1044A00000D01200800E0401205D57E12351030A61
:1044B00034E0010A10E0030A01E04DD00201010ED0
:1044C0000B6F0201C00E0C6F4F0E0D6F120E02012A
:1044D000106F116B40D00201010E0B6F04012251CD
:1044E000F66EF76AD890F636F736950EF626500E29
:1044F000F7220900F5CF0CF20A00F5CF0DF2020EFB
:104500000201F76A0C25F66E0D51F7220900F5CF6E
:1045100010F20A00F5CF11F21ED00201010E0B6F4E
:1045200004012251F66EF76AD890F636F736990EE6
:10453000F626500EF7220900F5CF0CF20A00F5CF4F
:104540000DF20CC2F6FF0DC2F7FF0800F550020194
:10455000106F116B00D00201148312000201010ED2
:104560000B6F0F0EE66E710EE66E0F0EE66E3FECF1
:1045700027F0E552E552E552010EE66E160EE66EA4
:10458000020EE66E3FEC27F0E552E552E55222C4FA
:1045900015F20401225104E10201050E136F05D04A
:1045A0000201060E136F96EC20F012000401286B36
:1045B000296B040120511F0B020A14E0030A0EE0CC
:1045C000010A01E033D00201010E0B6F04012881C2
:1045D000020114A102D00401288328D00201010E97
:1045E0000B6F24D00201010E0B6F040124510F0B3D
:1045F000080DF350156A000F146E040E1522245195
:10460000800B01E0010E040DF350020114240E6F23
:10461000000E15200F6F0EC2E9FF0FC2EAFFEF5028
:10462000040B03E00401010E286F00D002010B050A
:104630000AE10201280E0C6F040E0D6F02011493A3
:104640000201020E106F12000401220510E1205138
:104650001F0B00090CE10201010E0B6F030E040198
:10466000215D03E10201148102D0020114910401D1
:1046700022513AE120511F0B020836E124510F0B61
:10468000000932E00201010E0B6F040124510F0BEF
:10469000080DF350156A000F146E040E15222451F4
:1046A000800B01E0010E040DF350020114240E6F83
:1046B000000E15200F6F030E0401215D07E1840E2B
:1046C0000EC2E9FF0FC2EAFFEF6E0ED024AF06D094
:1046D0000EC2E9FF0FC2EAFFEF6A06D0880E0EC2D3
:0A46E000E9FF0FC2EAFFEF6E1200BF
:0646EA000201225115E15E
:1046F0000001620E606F660E146E550E156E166A1E
:1047000014C0E6FF15C0E6FF16C0E6FFEDEC28F08A
:10471000E552E552E552010E03D0226B000E00D0A7
:1047200012000201225101E022071200D9CFE6FF58
:10473000E1CFD9FFE652200EE66ECCEC12F0E55246
:10474000320EE66ECCEC12F0E552300EE66ECCEC9A
:1047500012F0E5528C0EE66ECAEC27F0E552DF6EE1
:10476000DFCFE6FF6FEC14F0E5522C0EE66ECCECDA
:1047700012F0E552880EE66ECAEC27F0E552DF6EC5
:10478000DFCFE6FF6FEC14F0E5522C0EE66ECCECBA
:1047900012F0E552860EE66ECAEC27F0E552DF6EA7
:1047A000DFCFE6FF6FEC14F0E552200EE66ECCECA6
:1047B00012F0E552840EE66ECAEC27F0E552DF6E89
:1047C000DFCFE6FF6FEC14F0E5523A0EE66ECCEC6C
:1047D00012F0E552820EE66ECAEC27F0E552DF6E6B
:1047E000DFCFE6FF6FEC14F0E5523A0EE66ECCEC4C
:1047F00012F0E552800EE66ECAEC27F0E552DF6E4D
:10480000DFCFE6FF6FEC14F0E5520A0EE66ECCEC5B
:1048100012F0E5520001630E606F0201020E226F7A
:10482000E552E552E7CFD9FF12005FDF000901E052
:1048300012D0A50EE66E900EE66EB4EC27F0E552AF
:10484000E552E66A800EE66EB4EC27F0E552E552DA
:104850000001630E606F1200D9CFE6FFE1CFD9FFF0
:1048600044DF000901E015D0FE0EDBCFE6FF840E29
:10487000E66EB4EC27F0E552E552FD0EDBCFE6FF25
:10488000820EE66EB4EC27F0E552E5520001630EAD
:10489000606FE552E7CFD9FF1200D9CFE6FFE1CF35
:1048A000D9FF23DF000901E01DD0FE0EDBCFE6FFBC
:1048B000880EE66EB4EC27F0E552E552FD0EDBCF34
:1048C000E6FF860EE66EB4EC27F0E552E552010EE7
:1048D000E66E8A0EE66EB4EC27F0E552E552000172
:1048E000630E606FE552E7CFD9FF1200D9CFE6FF24
:1048F000E1CFD9FFFADE000901E00CD0FE0EDBCFDC
:10490000E6FF8C0EE66EB4EC27F0E552E5520001AE
:0C491000630E606FE552E7CFD9FF120084
:04491C00D9CFE6FF0A
:10492000E1CFD9FF050EE1260B0EE66EE66A200EFA
:10493000E66EFB0EDBCFE6FFFC0EDBCFE6FFA0EC66
:1049400028F0146E050EE15E1450030EDB6A180E9B
:10495000F36E040EF3CFDBFFDF6ADE52080EDD6E6E
:10496000FD0EDBCFE9FFFE0EDBCFEAFFEECFF3FF5C
:10497000EDCFF4FFEE2A000EEF22F3CFE9FFF4CFE4
:10498000EAFF020EEFCFDBFFDB5004E0020EDB504C
:104990002F0814E1DF5002E1010EBAD00B0EE76ED2
:1049A000FB0EDBCFE9FFFC0EDBCFEAFFE750E92689
:1049B000000EEA22EF6A020EDB50AAD0020EDB5094
:1049C000200804E2020EDB507F0802E1020EA0D0B4
:1049D000020EDB502E0812E1030EDB50010B0CE13E
:1049E000010EDF5C09E3DF50080806E3080EDF6E06
:1049F000DE520B0EDD6E89D0030E8AD0020EDB5024
:104A0000220810E1040E84D0DF5009E1020EDB50D1
:104A1000E50805E1050EF36E020EF3CFDBFF030E92
:104A2000DB705DD0020EDB50290801E356D0020E88
:104A3000DB502C0802E3050E6BD0020EDB50390868
:104A400001E34BD0020EDB503F0802E3060E60D0BC
:104A5000030EDBB042D0020EDB507C0802E1070EF1
:104A600057D05B0EF36E020EDBCFF4FFF350F45C15
:104A700006E3020EDB505D0802E3080E49D00BD0BE
:104A8000010EDB50080804E1040EDB96DB5003D076
:104A9000040EDB98DB50610EF36E020EDBCFF4FFE9
:104AA000F350F45C1AE3020EDB507A0816E3200E92
:104AB000146E020EDBCFE7FF1450E75E020EE7CF65
:104AC000DBFF0BD0010EDB50080804E1030EDB8690
:104AD000DB5003D0030EDB88DB50030EDB90010EAE
:104AE000DB50DF5C02E3090E13D0DF50DF2AE76EF4
:104AF000FB0EDBCFE9FFFC0EDBCFEAFFE750E92638
:104B0000000EEA22020EDBCFEFFF2AD70A0E00D0FA
:104B1000146E050EE15C02E2E16AE552E16E1450AA
:084B2000E552E7CFD9FF1200B6
:084B2800929A949494829490F7
:104B300012008290808A8284000000000000000041
:104B4000809A00000000000000000000808A82843B
:104B50000000000000000000809A0000000000003B
:104B600000000000808A82941EB082840000809A37
:104B700000000000000000000000808A82941EB443
:104B800082840000809A0000000000000000000005
:104B9000808A82941EB282840000809A0000000005
:104BA000000000000000808A8284000000000000F5
:104BB0000000809A00000000000000000000808AD1
:104BC00082840000000000000000809A00000000C5
:104BD000000000000000808A8284000000000000C5
:104BE0000000809A000000000000000000001C6A25
:104BF0001D6A808A82B22180829400D0809A00004F
:104C000000D000D0808A82B22180829400D0809A25
:104C1000000000D000D0808A82B21D8E829400D025
:104C2000809A000000D000D0808A82B21D8C8294CD
:104C300000D0809A000000D000D0808A82B21D8A05
:104C4000829400D0809A000000D000D0808A82B286
:104C50001D88829400D0809A000000D000D0808A05
:104C600082B21D86829400D0809A000000D000D0CD
:104C7000808A82B21D84829400D0809A000000D085
:104C800000D0808A82B21D82829400D0809A000077
:104C900000D000D0808A82B21D80829400D0809A99
:104CA000000000D000D0808A82B21C8E829400D096
:104CB000809A000000D000D0808A82B21C8C82943E
:104CC00000D0809A000000D000D0808A82B21C8A76
:104CD000829400D0809A000000D000D0808A82B2F6
:104CE0001C88829400D0809A000000D000D082807E
:024CF0001200B0
:0E4CF2006DA60FD802D06DB613D802011305BF
:104D000008E16DBA06D0686A696A69806988020E2E
:104D1000136F12006D6A696A6D860201010E136FCE
:104D200012006D6A696A0201136B120091EF26F09E
:104D30000201135101E145D06850040B04E06950B1
:104D4000040B01E047D86DB23CD06850010B04E081
:104D50006950010B01E06BD86850100B04E06950FA
:104D6000100B01E02FD86850400B04E06950400B55
:104D700001E049D86850200B04E06950200B01E0A5
:104D800044D86850020B04E06950020B01E04DD892
:104D9000030E0201135D01E214D00201176B040E31
:104DA000175D0FE26850080B0BE06950080B08E034
:104DB00061EC1EF0000901E168960201172BEFD7A4
:104DC00000D01200698468986D82A19AA08A0300BD
:104DD000A09A12006D92699468A402D06894FCD7DE
:104DE0001200020114A10ED06D926D840201080E12
:104DF000186F070E196F1807000E195B185119115B
:104E0000FAE16D941200689C120070A00CD0800E24
:104E10000401005D07E1840E0401045D03E1040167
:104E20008C0E006F7090689A12006A6A12006A6AAB
:104E3000686A9F0E6B6E7B0E696E6E6A0F0EE66E71
:104E4000710EE66E0F0EE66E1AD8E552E552E55287
:104E5000160E706E68A608D068960000000000006C
:104E6000000000000000F6D76D98E3EC1FF002018F
:104E700014910201156B0201030E136F1200D9CFBA
:104E8000E6FFE1CFD9FFFD0EDBCFE9FFFE0EDBCF62
:104E9000EAFFFC0EDB5004E0EE6AFC0EDB06F9D7FD
:084EA000E552E7CFD9FF120033
:084EA800819881949398939482
:104EB00081881200D9CFE6FFE1CFD9FFE652939661
:104EC000DF6A080EDF5C19E2819400000000000038
:104ED000FE0EDB50010BE8B08186E8A08196FE0E45
:104EE000DBCFF3FFF390F342FE0EF3CFDBFF8184C1
:104EF000000000000000DF2AE4D7E552E552E7CFCA
:104F0000D9FF1200D9CFE6FFE1CFD9FF020EE1268B
:104F10009386010EDB6ADF6A080EDF5C16E281947D
:104F2000010EDBCFF3FFF390F342010EF3CFDBFF73
:104F300081A602D0010EDB8E0000000000008184FB
:104F4000000000000000DF2AE7D7010EDB5000D090
:104F5000146E020EE15C02E2E16AE552E16E145069
:104F6000E552E7CFD9FF1200D9CFE6FFE1CFD9FF55
:104F70009BDFFE0EDBCFE6FF9DDFE5528194FD0E49
:104F8000DBCFE6FF97DFE55281948198E552E7CFCA
:104F9000D9FF1200D9CFE6FFE1CFD9FFE65284DF77
:104FA000FE0EDB500109E66E85DFE552ABDFDF6EFA
:104FB0008198DF5000D0E552E552E7CFD9FF1200CB
:104FC0001201000202000008D8040A0001000102D8
:104FD000000109024300020100C03209040000017F
:104FE0000202010005240010010424020205240627
:104FF00000010524010001070582030800020904DD
:105000000100020A00000007050302400000070536
:1050100083024000000403090434034D0069006367
:105020000072006F00630068006900700020005487
:10503000006500630068006E006F006C006F006721
:10504000007900200049006E0063002E00480348EC
:10505000007900620072006900640053006B0079FF
:1050600000200044006100740061002000430061E2
:105070000070007400750072006500200043006F2E
:10508000006D006D0061006E00640020004C00693E
:10509000006E006500D24FD24F155019504D506828
:0150A00040CF
:0E50A2002A0EF66E100EF76E000EF86E02016A
:1050B0000900F550056F0900F550066F03E105671B
:1050C00001D03DD00900F550006F0900F550016F87
:1050D0000900F550026F09000900F550E96E09005A
:1050E000F550EA6E090009000900F550036F090048
:1050F000F550046F09000900F6CF07F2F7CF08F268
:10510000F8CF09F200C2F6FF01C2F7FF02C2F8FFB2
:105110000201035302E1045307E00900F550EE6E6B
:105120000307F8E20407F9D707C2F6FF08C2F7FF42
:1051300009C2F8FF02010507000E065BBFD7120087
:10514000FE0EE3CFE9FFFF0EE3CFEAFFE9CFF3FF67
:10515000EACFF4FFFB0EE35003E1FC0EE35009E05D
:10516000FB0EE30602E2FC0EE306FD0EE350EE6EDC
:10517000F1D71200FE0EE3CFE9FFFF0EE3CFEAFF07
:10518000F36AF46AEE5203E0F34AF42AFBD7120002
:10519000FF0EE3CFF8FFE552FF0EE3CFF7FFE55236
:1051A000FF0EE3CFF6FFE552E66AE66AE66A09001B
:1051B000F55209E0FD0EE32A05E1FE0EE32A02E1C5
:1051C000FF0EE32AF4D7FD0EE3CF05F0FE0EE3CF8A
:0A51D00006F0FF0EE3CF07F0120017
:0651DA00D9CFE6FFDACF99
:1051E000E6FFE1CFD9FFE2CFDAFFE652E652E65220
:1051F000E652D950FB0F146EFF0EDA20156E14C064
:10520000DEFFDD6EDECFE6FFDDCFE6FFFB0EDBCFA0
:10521000E6FFFC0EDBCFE6FFFD0EDBCFE6FF1EC296
:10522000E6FF1FC2E6FF38EC08F0146E070EE15CE3
:1052300002E2E16AE552E16E1450020EF3CFDBFFA9
:10524000030EF4CFDBFF020EDBCF14F0030EDBCF37
:1052500015F014C0F3FF15C0F4FF040EE15C02E288
:10526000E16AE552E16EE552E5CFDAFFE7CFD9FF1B
:0252700012002A
:0E527200D9CFE6FFDACFE6FFE1CFD9FFE2CFDA
:10528000DAFFFB0EDBCF14F0FC0EDBCF15F00001D4
:10529000800E15141AE1FB0EDBCFE9FFFC0EDBCF0D
:1052A000EAFFEECFF3FFEDCFF4FFEE2A000EEF2280
:1052B000F3CFE9FFF4CFEAFFFD0EDBCFEFFFEF50B6
:1052C000156AF36E15C0F4FF10D0FB0EDB50FE081C
:1052D00006E1FD0EDBCFE6FF80EC2BF005D0FD0EE6
:1052E000DBCFE6FFE6EC12F0E552E552E5CFDAFF60
:0652F000E7CFD9FF120018
:0A52F600D9CFE6FFE1CFD9FF030E88
:10530000E126938C938EC69AFE0EDB50010806E2CE
:10531000580EE66ECCEC12F0E5521BD0200EE66E75
:10532000CCEC12F0E552FE0EDB5007E18150400B51
:1053300001E0010EDE6EDD6A06D08150800B01E0D7
:10534000010EDE6EDD6A020EDBCFE6FF6FEC14F0BD
:10535000E5520A0EE66ECCEC12F0E5520001630E47
:10536000606F030EE15C02E2E16AE552E16EE55234
:06537000E7CFD9FF120097
:0A537600430EE66ECCEC12F0E55297
:105380003A0EE66ECCEC12F0E552200EE66ECCEC56
:1053900012F0E5524E0EE66ECCEC12F0E552590ECC
:1053A000E66ECCEC12F0E552490EE66ECCEC12F053
:1053B000E55212000A0EE66ECCEC12F0E552000146
:1053C000630E606F1200D9CFE6FFE1CFD9FFD3DFC4
:1053D000F1DFE552E7CFD9FF1200CDDFDAEF29F098
:0C53E000CADFDAEF29F0C7DFDAEF29F0AE
:0453EC00045009025E
:1053F000F3CF00F0F4CF01F00A02F3500126000EC3
:10540000F420026E04500B02F3500226000EF4202A
:10541000036E04500C02F350032605500902F350AA
:105420000126F4500222000E032205500A02F35016
:105430000226F450032205500B02F35003260650B7
:105440000902F3500226F450032206500A02F350D8
:0C545000032607500902F3500326120047
:04545C000201206BBE
:10546000F30E8916921689868FEF12F0060E02014E
:10547000135D03E36D50020B01E018D00001E95108
:1054800002E1898601D08996020120510DE10001D7
:10549000E9510AE1C00EE66E560EE66E3BEC21F0D5
:0E54A000E552E5520201202B04EC16F012003A
:0254AE00D9CF54
:1054B000E6FFDACFE6FFE1CFD9FFE2CFDAFFFF0E5A
:1054C000E76EFC0EDBCF14F0E75014161450A96EF3
:1054D000FB0EDB50A86EA69EA69CA684F29E550EDF
:1054E000A76EAA0EA76EA682F28EA694E552E5CF0D
:0854F000DAFFE7CFD9FF12003B
:0854F800036A026A016A006AFE
:10550000200EE76ED890043605360636073600368C
:105510000136023603360950005C0A5001580B5020
:1055200002580C50035809E30950005E0A50015A12
:105530000B50025A0C50035A042AE72EE4D71200EB
:10554000487962726964536B792E636F6D204441B0
:105550005120312E300A3E200048656C6C6F205778
:105560006F726C640A00544F442041636365737327
:105570000A0025640025642E0025640025642E00A1
:04558000256420007E
:0C558400D9CFE6FFDACFE6FFE1CFD9FF78
:10559000E2CFDAFFE652E652D650DF6E010ED7CFE9
:1055A000DBFFDECF14F0DDCF15F014C0F3FF15C024
:1055B000F4FFE552E552E552E5CFDAFFE7CFD9FF38
:0255C0001200D7
:0E55C200D9CFE6FFDACFE6FFE1CFD9FFE2CF87
:1055D000DAFFE652E652FC0EDBCFDEFFDBCFDDFF6B
:1055E000010EDB50D76EDF50D66EE552E552E55224
:0A55F000E5CFDAFFE7CFD9FF120084
:0655FA00D9CFE6FFDACF75
:10560000E6FFE1CFD9FFE2CFDAFFFD0EDB507F0BE3
:10561000D56ED76AD66AF294FD0EDBAE02D0F28A5E
:1056200001D0F29AD58EE552E5CFDAFFE7CFD9FF68
:02563000120066
:0E563200D9CFE6FFDACFE6FFE1CFD9FFE2CF16
:10564000DAFFFF0EE76EFC0EDBCF14F0E750141606
:105650001450A96EA69CA69EA680A850E552E5CF40
:08566000DAFFE7CFD9FF1200C9
:0856680005D810D836EC2AF039
:10567000FCD712000F0EC112140E6F6E0201136BD5
:105680000201146B0201156B2EEF2AF079EC26F063
:0C5690006FBE02D098EC26F079EF21F0FC
:04569C00F36AF46A4F
:1056A000FF0EE124E96EFF0EE220EA6EED6607D000
:1056B0002F0EEF6404D03A0EEF6001D0F32A1200EF
:1056C00048796272696420536B79205553422044B3
:1056D0006562756720426F6172642044656D6F0D6D
:0456E0000A0D0A00A5
:0C56E40013EE00F023EE00F0F86A0F9CBB
:1056F00051EC28F0A4EC2BF034EC2BF0FBD712008B
:10570000FF0EE350ACBA04D0AF6AAB8EAC8A949C67
:0C571000ACA2FED7AD6EF36EF46A12007E
:04571C0030313233C3
:0D57200034353637383961626364656600E0
:01572D00007B
:02572E0000EE8B
:0C57300000F00F0EEE6AEA62FDD71200D6
:04573C00D59EF29A6A
:02574000120055
:06574200A6B2FED7120022
:0257480012004D
:02574A00FEFF60
:00000001FF
